{
  "contractName": "ProjectHub",
  "abi": [
    {
      "anonymous": false,
      "inputs": [
        {
          "indexed": false,
          "internalType": "address",
          "name": "projectAddress",
          "type": "address"
        },
        {
          "indexed": false,
          "internalType": "string",
          "name": "description",
          "type": "string"
        },
        {
          "indexed": false,
          "internalType": "uint256",
          "name": "minDonation",
          "type": "uint256"
        },
        {
          "indexed": false,
          "internalType": "uint256",
          "name": "goal",
          "type": "uint256"
        }
      ],
      "name": "ProjectCreated",
      "type": "event"
    },
    {
      "constant": true,
      "inputs": [
        {
          "internalType": "uint256",
          "name": "",
          "type": "uint256"
        }
      ],
      "name": "projects",
      "outputs": [
        {
          "internalType": "contract Project",
          "name": "",
          "type": "address"
        }
      ],
      "payable": false,
      "stateMutability": "view",
      "type": "function"
    },
    {
      "constant": false,
      "inputs": [
        {
          "internalType": "string",
          "name": "_description",
          "type": "string"
        },
        {
          "internalType": "uint256",
          "name": "_minDonation",
          "type": "uint256"
        },
        {
          "internalType": "uint256",
          "name": "_goal",
          "type": "uint256"
        }
      ],
      "name": "create_project",
      "outputs": [],
      "payable": true,
      "stateMutability": "payable",
      "type": "function"
    },
    {
      "constant": true,
      "inputs": [],
      "name": "get_projects",
      "outputs": [
        {
          "internalType": "contract Project[]",
          "name": "",
          "type": "address[]"
        }
      ],
      "payable": false,
      "stateMutability": "view",
      "type": "function"
    }
  ],
  "bytecode": "0x608060405234801561001057600080fd5b50611647806100206000396000f3fe6080604052600436106100345760003560e01c8063107046bd146100395780637080e8e1146100b4578063f19b459c14610120575b600080fd5b34801561004557600080fd5b506100726004803603602081101561005c57600080fd5b81019080803590602001909291905050506101ef565b604051808273ffffffffffffffffffffffffffffffffffffffff1673ffffffffffffffffffffffffffffffffffffffff16815260200191505060405180910390f35b3480156100c057600080fd5b506100c961022b565b6040518080602001828103825283818151815260200191508051906020019060200280838360005b8381101561010c5780820151818401526020810190506100f1565b505050509050019250505060405180910390f35b6101ed6004803603606081101561013657600080fd5b810190808035906020019064010000000081111561015357600080fd5b82018360208201111561016557600080fd5b8035906020019184600183028401116401000000008311171561018757600080fd5b91908080601f016020809104026020016040519081016040528093929190818152602001838380828437600081840152601f19601f82011690508083019250505050505050919291929080359060200190929190803590602001909291905050506102b9565b005b600081815481106101fc57fe5b906000526020600020016000915054906101000a900473ffffffffffffffffffffffffffffffffffffffff1681565b606060008054806020026020016040519081016040528092919081815260200182805480156102af57602002820191906000526020600020905b8160009054906101000a900473ffffffffffffffffffffffffffffffffffffffff1673ffffffffffffffffffffffffffffffffffffffff1681526020019060010190808311610265575b5050505050905090565b6000838383336040516102cb906104e6565b80806020018581526020018481526020018373ffffffffffffffffffffffffffffffffffffffff1673ffffffffffffffffffffffffffffffffffffffff168152602001828103825286818151815260200191508051906020019080838360005b8381101561034657808201518184015260208101905061032b565b50505050905090810190601f1680156103735780820380516001836020036101000a031916815260200191505b5095505050505050604051809103906000f080158015610397573d6000803e3d6000fd5b50905060008190806001815401808255809150509060018203906000526020600020016000909192909190916101000a81548173ffffffffffffffffffffffffffffffffffffffff021916908373ffffffffffffffffffffffffffffffffffffffff160217905550507f77e1711a5332db9609573705ce01b8d3258aa16e751c6ca17dd31484d6454c3381858585604051808573ffffffffffffffffffffffffffffffffffffffff1673ffffffffffffffffffffffffffffffffffffffff16815260200180602001848152602001838152602001828103825285818151815260200191508051906020019080838360005b838110156104a3578082015181840152602081019050610488565b50505050905090810190601f1680156104d05780820380516001836020036101000a031916815260200191505b509550505050505060405180910390a150505050565b61111f806104f48339019056fe608060405260006003553480156200001657600080fd5b506040516200111f3803806200111f833981810160405260808110156200003c57600080fd5b81019080805160405193929190846401000000008211156200005d57600080fd5b838201915060208201858111156200007457600080fd5b82518660018202830111640100000000821117156200009257600080fd5b8083526020830192505050908051906020019080838360005b83811015620000c8578082015181840152602081019050620000ab565b50505050905090810190601f168015620000f65780820380516001836020036101000a031916815260200191505b5060405260200180519060200190929190805190602001909291908051906020019092919050505083600190805190602001906200013692919062000197565b508260028190555081600481905550806000806101000a81548173ffffffffffffffffffffffffffffffffffffffff021916908373ffffffffffffffffffffffffffffffffffffffff16021790555060006007819055505050505062000246565b828054600181600116156101000203166002900490600052602060002090601f016020900481019282601f10620001da57805160ff19168380011785556200020b565b828001600101855582156200020b579182015b828111156200020a578251825591602001919060010190620001ed565b5b5090506200021a91906200021e565b5090565b6200024391905b808211156200023f57600081600090555060010162000225565b5090565b90565b610ec980620002566000396000f3fe6080604052600436106100a75760003560e01c80637284e416116100645780637284e416146102855780638da5cb5b14610315578063a222e6651461036c578063bdec12301461044b578063cc6cb19a14610486578063d7bb99ba146104eb576100a7565b806308fccafc146100ac578063110229c1146100e75780631c0e022514610112578063401938831461013d578063410bbe801461016857806364b2e2d91461025a575b600080fd5b3480156100b857600080fd5b506100e5600480360360208110156100cf57600080fd5b81019080803590602001909291905050506104f5565b005b3480156100f357600080fd5b506100fc61069d565b6040518082815260200191505060405180910390f35b34801561011e57600080fd5b506101276106a3565b6040518082815260200191505060405180910390f35b34801561014957600080fd5b506101526106a9565b6040518082815260200191505060405180910390f35b34801561017457600080fd5b506102586004803603606081101561018b57600080fd5b81019080803590602001906401000000008111156101a857600080fd5b8201836020820111156101ba57600080fd5b803590602001918460018302840111640100000000831117156101dc57600080fd5b91908080601f016020809104026020016040519081016040528093929190818152602001838380828437600081840152601f19601f820116905080830192505050505050509192919290803573ffffffffffffffffffffffffffffffffffffffff169060200190929190803590602001909291905050506106af565b005b34801561026657600080fd5b5061026f6108de565b6040518082815260200191505060405180910390f35b34801561029157600080fd5b5061029a6108e4565b6040518080602001828103825283818151815260200191508051906020019080838360005b838110156102da5780820151818401526020810190506102bf565b50505050905090810190601f1680156103075780820380516001836020036101000a031916815260200191505b509250505060405180910390f35b34801561032157600080fd5b5061032a610982565b604051808273ffffffffffffffffffffffffffffffffffffffff1673ffffffffffffffffffffffffffffffffffffffff16815260200191505060405180910390f35b34801561037857600080fd5b506103816109a7565b604051808773ffffffffffffffffffffffffffffffffffffffff1673ffffffffffffffffffffffffffffffffffffffff16815260200180602001868152602001858152602001848152602001838152602001828103825287818151815260200191508051906020019080838360005b8381101561040b5780820151818401526020810190506103f0565b50505050905090810190601f1680156104385780820380516001836020036101000a031916815260200191505b5097505050505050505060405180910390f35b34801561045757600080fd5b506104846004803603602081101561046e57600080fd5b8101908080359060200190929190505050610a8e565b005b34801561049257600080fd5b506104d5600480360360208110156104a957600080fd5b81019080803573ffffffffffffffffffffffffffffffffffffffff169060200190929190505050610ca4565b6040518082815260200191505060405180910390f35b6104f3610cbc565b005b600454600354101561050657600080fd5b60006008600083815260200190815260200160002090506000600660003373ffffffffffffffffffffffffffffffffffffffff1673ffffffffffffffffffffffffffffffffffffffff168152602001908152602001600020541161056957600080fd5b600015158160040160003373ffffffffffffffffffffffffffffffffffffffff1673ffffffffffffffffffffffffffffffffffffffff16815260200190815260200160002060009054906101000a900460ff161515146105c857600080fd5b60018160040160003373ffffffffffffffffffffffffffffffffffffffff1673ffffffffffffffffffffffffffffffffffffffff16815260200190815260200160002060006101000a81548160ff02191690831515021790555080600301600081548092919060010191905055507f137a99be36aa5d9c4a28207ff686d8d558234cb64a943ed60ad3a116c64fe82a33604051808273ffffffffffffffffffffffffffffffffffffffff1673ffffffffffffffffffffffffffffffffffffffff16815260200191505060405180910390a15050565b60035481565b60025481565b60045481565b6000809054906101000a900473ffffffffffffffffffffffffffffffffffffffff1673ffffffffffffffffffffffffffffffffffffffff163373ffffffffffffffffffffffffffffffffffffffff161461070857600080fd5b600454600354101561071957600080fd5b60006008600060076000815480929190600101919050558152602001908152602001600020905083816000019080519060200190610758929190610def565b50818160010181905550828160020160006101000a81548173ffffffffffffffffffffffffffffffffffffffff021916908373ffffffffffffffffffffffffffffffffffffffff1602179055506000816003018190555060008160020160146101000a81548160ff0219169083151502179055507fbc4d0e3ffbf370d5f243517e2c6b11f82282a49687fc6c0bac2af61008b01f1d33848685604051808573ffffffffffffffffffffffffffffffffffffffff1673ffffffffffffffffffffffffffffffffffffffff1681526020018473ffffffffffffffffffffffffffffffffffffffff1673ffffffffffffffffffffffffffffffffffffffff16815260200180602001838152602001828103825284818151815260200191508051906020019080838360005b8381101561089b578082015181840152602081019050610880565b50505050905090810190601f1680156108c85780820380516001836020036101000a031916815260200191505b509550505050505060405180910390a150505050565b60055481565b60018054600181600116156101000203166002900480601f01602080910402602001604051908101604052809291908181526020018280546001816001161561010002031660029004801561097a5780601f1061094f5761010080835404028352916020019161097a565b820191906000526020600020905b81548152906001019060200180831161095d57829003601f168201915b505050505081565b6000809054906101000a900473ffffffffffffffffffffffffffffffffffffffff1681565b600060606000806000806000809054906101000a900473ffffffffffffffffffffffffffffffffffffffff16955060018054600181600116156101000203166002900480601f016020809104026020016040519081016040528092919081815260200182805460018160011615610100020316600290048015610a6b5780601f10610a4057610100808354040283529160200191610a6b565b820191906000526020600020905b815481529060010190602001808311610a4e57829003601f168201915b505050505094506002549350600354925060045491506005549050909192939495565b6000809054906101000a900473ffffffffffffffffffffffffffffffffffffffff1673ffffffffffffffffffffffffffffffffffffffff163373ffffffffffffffffffffffffffffffffffffffff1614610ae757600080fd5b6004546003541015610af857600080fd5b6000600860008381526020019081526020016000209050600015158160020160149054906101000a900460ff16151514610b3157600080fd5b600260055481610b3d57fe5b04816003015411610b4d57600080fd5b8060020160009054906101000a900473ffffffffffffffffffffffffffffffffffffffff1673ffffffffffffffffffffffffffffffffffffffff166108fc82600101549081150290604051600060405180830381858888f19350505050158015610bbb573d6000803e3d6000fd5b5060018160020160146101000a81548160ff0219169083151502179055507f0a58819e8a8484b4b953261f35757d54a8bb44412938c22784e056a69ffa17c9338260020160009054906101000a900473ffffffffffffffffffffffffffffffffffffffff168360010154604051808473ffffffffffffffffffffffffffffffffffffffff1673ffffffffffffffffffffffffffffffffffffffff1681526020018373ffffffffffffffffffffffffffffffffffffffff1673ffffffffffffffffffffffffffffffffffffffff168152602001828152602001935050505060405180910390a15050565b60066020528060005260406000206000915090505481565b6002543411610cca57600080fd5b6000600660003373ffffffffffffffffffffffffffffffffffffffff1673ffffffffffffffffffffffffffffffffffffffff168152602001908152602001600020541415610d25576005600081548092919060010191905055505b34600660003373ffffffffffffffffffffffffffffffffffffffff1673ffffffffffffffffffffffffffffffffffffffff16815260200190815260200160002060008282540192505081905550346003600082825401925050819055507f906faaf913a60f38b5e8f2d6f5b163239bac2d994fa1a5d21751a51587a940573334604051808373ffffffffffffffffffffffffffffffffffffffff1673ffffffffffffffffffffffffffffffffffffffff1681526020018281526020019250505060405180910390a1565b828054600181600116156101000203166002900490600052602060002090601f016020900481019282601f10610e3057805160ff1916838001178555610e5e565b82800160010185558215610e5e579182015b82811115610e5d578251825591602001919060010190610e42565b5b509050610e6b9190610e6f565b5090565b610e9191905b80821115610e8d576000816000905550600101610e75565b5090565b9056fea265627a7a723158208a275182b01f19de157810ab0442156611a34bb0bec1ab463bcb3ce81b199b5264736f6c63430005100032a265627a7a72315820b2cefea608d5081aac42df8080f5baed4c331ad9bb96cc70c9dc332a9ccb420164736f6c63430005100032",
  "source": "// SPDX-License-Identifier: GPL-3.0\r\npragma solidity >=0.4.22 <0.9.0;\r\n\r\ncontract Project{\r\n    // Storage state cariables\r\n    address public owner;\r\n    string public description;\r\n    uint public minDonation;\r\n    uint public raisedDonation = 0;\r\n    uint public goal;\r\n    uint public numberOfDonors;\r\n    mapping (address => uint) public donations; // stores the donation of each donor\r\n    uint numRequests;\r\n    mapping (uint => Request) requests;\r\n    \r\n    // For each spending request, need to create a new instance of request\r\n    struct Request {\r\n        string requestDescription;\r\n        uint value;\r\n        \r\n        address payable recipient; // This is the address that the beneificiary want to send funds to.\r\n        bool completed;\r\n        uint numberOfVoters;\r\n        mapping (address=>bool) voters;\r\n    }\r\n    \r\n    // Events needed by the web app\r\n    event Contribute( address donor, uint amount);\r\n    event CreateRequest( address owner, address recipient, string requestDescription, uint value );\r\n    event PaymentMade( address owner, address recipient, uint value );\r\n    event DonorVote( address donor);\r\n    \r\n    // Modifiers to automatically check a condition, prior to executing a function\r\n    modifier onlyAdmin{\r\n        require(msg.sender == owner);\r\n        _; // This is just syntax, this tells the modifier to continue with the rest of the function after it calls its body\r\n    }\r\n    \r\n    modifier goalReached {\r\n        // Allow owner to create spending requrest only when the goal is reached\r\n        require(raisedDonation >= goal);\r\n        _;\r\n    }\r\n    \r\n    constructor( string memory _description, uint _minDonation, uint _goal, address _owner) public {\r\n        description = _description;\r\n        minDonation = _minDonation;\r\n        goal = _goal;\r\n        owner = _owner; // The creator of the project is the owner of the project\r\n        numRequests = 0;\r\n    }\r\n    \r\n    function contribute() public payable{\r\n        // A payable function will store the value that is sent to that account\r\n        // and will be trapped there unless there is a withdraw function\r\n        // Conditions for executing the rest of the function\r\n        require( msg.value > minDonation);\r\n        // Checking whether this is the first time the person is contributing\r\n        if(donations[msg.sender] == 0){\r\n            // If its his first time, need to invrement the total number of contributors\r\n            numberOfDonors ++;\r\n        }\r\n        // Add the amount sent to his previous contributions\r\n        donations[msg.sender] += msg.value;\r\n        raisedDonation += msg.value;\r\n        emit Contribute( msg.sender, msg.value);\r\n    }\r\n    \r\n    // Project owner creates a request before he can spend his money\r\n    function create_request( string memory _requestDescription, address payable _recipient, uint _value) public onlyAdmin goalReached{\r\n        // instantiating a request struct in memory\r\n        // Store request struct variable from mapping in storage\r\n        Request storage newRequest = requests[numRequests++];\r\n        newRequest.requestDescription = _requestDescription;\r\n        newRequest.value = _value;\r\n        newRequest.recipient = _recipient;\r\n        newRequest.numberOfVoters = 0;\r\n        newRequest.completed = false;\r\n        emit CreateRequest( msg.sender, _recipient, _requestDescription, _value);\r\n    }\r\n    \r\n    function vote_request(uint index) public goalReached{\r\n        \r\n        // Direct Reference a specific spending request inside the requests dynamic array\r\n        // by calling storage here,, any changes that we make to thisRequest will\r\n        // also affect the request in tthe specific index in requests array\r\n        Request storage thisRequest =  requests[index];\r\n        // Checking for Conditions\r\n        // The voter also needs to be a donor\r\n        require(donations[msg.sender] > 0);\r\n        // The voter cannot double vote\r\n        require(thisRequest.voters[msg.sender] == false);\r\n        // Counting the vote \r\n        // We only count positive votes\r\n        thisRequest.voters[msg.sender] = true;\r\n        thisRequest.numberOfVoters++;\r\n        emit DonorVote(msg.sender);\r\n    }\r\n    \r\n    \r\n    function make_payment( uint index) public onlyAdmin goalReached{\r\n        // Directly reference the specfic spending request inside the request dynamic array\r\n        Request storage thisRequest = requests[index];\r\n        \r\n        // Check necessary Conditions \r\n        // Cannot allow double payment for the same request\r\n        require(thisRequest.completed == false);\r\n        // Number of voters that approved should be more thatn 50% voters\r\n        require(thisRequest.numberOfVoters > numberOfDonors /2);\r\n        \r\n        // Performing the transder operation\r\n        thisRequest.recipient.transfer(thisRequest.value);\r\n        thisRequest.completed = true;\r\n        emit PaymentMade( msg.sender, thisRequest.recipient, thisRequest.value );\r\n    }\r\n\r\n    function get_summary() public view returns ( \r\n        address _owner, \r\n        string memory _description,\r\n        uint _minDonation,\r\n        uint _raisedDonation,\r\n        uint _goal,\r\n        uint _numberOfDonors ){\r\n        _owner = owner;\r\n        _description = description;\r\n        _minDonation = minDonation;\r\n        _raisedDonation = raisedDonation;\r\n        _goal = goal;\r\n        _numberOfDonors = numberOfDonors;\r\n    }\r\n    \r\n}\r\n\r\n\r\ncontract ProjectHub {\r\n// Similar to a zombie factory\r\n    \r\n    // state variables\r\n    Project[] public projects;\r\n    \r\n    event ProjectCreated(address projectAddress, string description, uint minDonation, uint goal);\r\n    \r\n    function create_project(string memory _description, uint _minDonation, uint _goal ) public payable {\r\n    // Create a new project, need to provide all the necessary attributes for that project\r\n        Project project = new Project(_description, _minDonation, _goal, msg.sender);\r\n        projects.push(project);\r\n        emit ProjectCreated( address(project), _description, _minDonation, _goal);\r\n    }\r\n    \r\n    function get_projects() public view returns (Project[] memory){\r\n        // Returns the list of all the projects addresses\r\n        return projects;\r\n    }\r\n    \r\n}",
  "sourcePath": "D:\\Onedrive\\SUTD\\Term 8\\Blockchain\\TraceDonate\\contracts\\traceDonate.sol",
  "compiler": {
    "name": "solc",
    "version": "0.5.16+commit.9c3226ce.Emscripten.clang"
  },
  "schemaVersion": "3.4.2",
  "updatedAt": "2021-08-09T12:31:28.542Z",
  "networkType": "ethereum",
  "devdoc": {
    "methods": {}
  },
  "userdoc": {
    "methods": {}
  }
}