{
  "contractName": "ProjectHub",
  "abi": [
    {
      "anonymous": false,
      "inputs": [
        {
          "indexed": false,
          "internalType": "address",
          "name": "projectAddress",
          "type": "address"
        },
        {
          "indexed": false,
          "internalType": "string",
          "name": "description",
          "type": "string"
        },
        {
          "indexed": false,
          "internalType": "uint256",
          "name": "minDonation",
          "type": "uint256"
        },
        {
          "indexed": false,
          "internalType": "uint256",
          "name": "goal",
          "type": "uint256"
        }
      ],
      "name": "ProjectCreated",
      "type": "event"
    },
    {
      "constant": true,
      "inputs": [
        {
          "internalType": "uint256",
          "name": "",
          "type": "uint256"
        }
      ],
      "name": "projects",
      "outputs": [
        {
          "internalType": "contract Project",
          "name": "",
          "type": "address"
        }
      ],
      "payable": false,
      "stateMutability": "view",
      "type": "function"
    },
    {
      "constant": false,
      "inputs": [
        {
          "internalType": "string",
          "name": "_description",
          "type": "string"
        },
        {
          "internalType": "uint256",
          "name": "_minDonation",
          "type": "uint256"
        },
        {
          "internalType": "uint256",
          "name": "_goal",
          "type": "uint256"
        }
      ],
      "name": "create_project",
      "outputs": [],
      "payable": true,
      "stateMutability": "payable",
      "type": "function"
    },
    {
      "constant": true,
      "inputs": [],
      "name": "get_projects",
      "outputs": [
        {
          "internalType": "contract Project[]",
          "name": "",
          "type": "address[]"
        }
      ],
      "payable": false,
      "stateMutability": "view",
      "type": "function"
    }
  ],
  "bytecode": "0x608060405234801561001057600080fd5b50611437806100206000396000f3fe6080604052600436106100345760003560e01c8063107046bd146100395780637080e8e1146100b4578063f19b459c14610120575b600080fd5b34801561004557600080fd5b506100726004803603602081101561005c57600080fd5b81019080803590602001909291905050506101ef565b604051808273ffffffffffffffffffffffffffffffffffffffff1673ffffffffffffffffffffffffffffffffffffffff16815260200191505060405180910390f35b3480156100c057600080fd5b506100c961022b565b6040518080602001828103825283818151815260200191508051906020019060200280838360005b8381101561010c5780820151818401526020810190506100f1565b505050509050019250505060405180910390f35b6101ed6004803603606081101561013657600080fd5b810190808035906020019064010000000081111561015357600080fd5b82018360208201111561016557600080fd5b8035906020019184600183028401116401000000008311171561018757600080fd5b91908080601f016020809104026020016040519081016040528093929190818152602001838380828437600081840152601f19601f82011690508083019250505050505050919291929080359060200190929190803590602001909291905050506102b9565b005b600081815481106101fc57fe5b906000526020600020016000915054906101000a900473ffffffffffffffffffffffffffffffffffffffff1681565b606060008054806020026020016040519081016040528092919081815260200182805480156102af57602002820191906000526020600020905b8160009054906101000a900473ffffffffffffffffffffffffffffffffffffffff1673ffffffffffffffffffffffffffffffffffffffff1681526020019060010190808311610265575b5050505050905090565b60008383836040516102ca906104b2565b8080602001848152602001838152602001828103825285818151815260200191508051906020019080838360005b838110156103135780820151818401526020810190506102f8565b50505050905090810190601f1680156103405780820380516001836020036101000a031916815260200191505b50945050505050604051809103906000f080158015610363573d6000803e3d6000fd5b50905060008190806001815401808255809150509060018203906000526020600020016000909192909190916101000a81548173ffffffffffffffffffffffffffffffffffffffff021916908373ffffffffffffffffffffffffffffffffffffffff160217905550507f77e1711a5332db9609573705ce01b8d3258aa16e751c6ca17dd31484d6454c3381858585604051808573ffffffffffffffffffffffffffffffffffffffff1673ffffffffffffffffffffffffffffffffffffffff16815260200180602001848152602001838152602001828103825285818151815260200191508051906020019080838360005b8381101561046f578082015181840152602081019050610454565b50505050905090810190601f16801561049c5780820380516001836020036101000a031916815260200191505b509550505050505060405180910390a150505050565b610f43806104c08339019056fe608060405260006003553480156200001657600080fd5b5060405162000f4338038062000f43833981810160405260608110156200003c57600080fd5b81019080805160405193929190846401000000008211156200005d57600080fd5b838201915060208201858111156200007457600080fd5b82518660018202830111640100000000821117156200009257600080fd5b8083526020830192505050908051906020019080838360005b83811015620000c8578082015181840152602081019050620000ab565b50505050905090810190601f168015620000f65780820380516001836020036101000a031916815260200191505b50604052602001805190602001909291908051906020019092919050505082600190805190602001906200012c9291906200018c565b508160028190555080600481905550336000806101000a81548173ffffffffffffffffffffffffffffffffffffffff021916908373ffffffffffffffffffffffffffffffffffffffff16021790555060006007819055505050506200023b565b828054600181600116156101000203166002900490600052602060002090601f016020900481019282601f10620001cf57805160ff191683800117855562000200565b8280016001018555821562000200579182015b82811115620001ff578251825591602001919060010190620001e2565b5b5090506200020f919062000213565b5090565b6200023891905b80821115620002345760008160009055506001016200021a565b5090565b90565b610cf8806200024b6000396000f3fe60806040526004361061009c5760003560e01c806364b2e2d91161006457806364b2e2d91461024f5780637284e4161461027a5780638da5cb5b1461030a578063bdec123014610361578063cc6cb19a1461039c578063d7bb99ba146104015761009c565b806308fccafc146100a1578063110229c1146100dc5780631c0e0225146101075780634019388314610132578063410bbe801461015d575b600080fd5b3480156100ad57600080fd5b506100da600480360360208110156100c457600080fd5b810190808035906020019092919050505061040b565b005b3480156100e857600080fd5b506100f16105b3565b6040518082815260200191505060405180910390f35b34801561011357600080fd5b5061011c6105b9565b6040518082815260200191505060405180910390f35b34801561013e57600080fd5b506101476105bf565b6040518082815260200191505060405180910390f35b34801561016957600080fd5b5061024d6004803603606081101561018057600080fd5b810190808035906020019064010000000081111561019d57600080fd5b8201836020820111156101af57600080fd5b803590602001918460018302840111640100000000831117156101d157600080fd5b91908080601f016020809104026020016040519081016040528093929190818152602001838380828437600081840152601f19601f820116905080830192505050505050509192919290803573ffffffffffffffffffffffffffffffffffffffff169060200190929190803590602001909291905050506105c5565b005b34801561025b57600080fd5b506102646107f4565b6040518082815260200191505060405180910390f35b34801561028657600080fd5b5061028f6107fa565b6040518080602001828103825283818151815260200191508051906020019080838360005b838110156102cf5780820151818401526020810190506102b4565b50505050905090810190601f1680156102fc5780820380516001836020036101000a031916815260200191505b509250505060405180910390f35b34801561031657600080fd5b5061031f610898565b604051808273ffffffffffffffffffffffffffffffffffffffff1673ffffffffffffffffffffffffffffffffffffffff16815260200191505060405180910390f35b34801561036d57600080fd5b5061039a6004803603602081101561038457600080fd5b81019080803590602001909291905050506108bd565b005b3480156103a857600080fd5b506103eb600480360360208110156103bf57600080fd5b81019080803573ffffffffffffffffffffffffffffffffffffffff169060200190929190505050610ad3565b6040518082815260200191505060405180910390f35b610409610aeb565b005b600454600354101561041c57600080fd5b60006008600083815260200190815260200160002090506000600660003373ffffffffffffffffffffffffffffffffffffffff1673ffffffffffffffffffffffffffffffffffffffff168152602001908152602001600020541161047f57600080fd5b600015158160040160003373ffffffffffffffffffffffffffffffffffffffff1673ffffffffffffffffffffffffffffffffffffffff16815260200190815260200160002060009054906101000a900460ff161515146104de57600080fd5b60018160040160003373ffffffffffffffffffffffffffffffffffffffff1673ffffffffffffffffffffffffffffffffffffffff16815260200190815260200160002060006101000a81548160ff02191690831515021790555080600301600081548092919060010191905055507f137a99be36aa5d9c4a28207ff686d8d558234cb64a943ed60ad3a116c64fe82a33604051808273ffffffffffffffffffffffffffffffffffffffff1673ffffffffffffffffffffffffffffffffffffffff16815260200191505060405180910390a15050565b60035481565b60025481565b60045481565b6000809054906101000a900473ffffffffffffffffffffffffffffffffffffffff1673ffffffffffffffffffffffffffffffffffffffff163373ffffffffffffffffffffffffffffffffffffffff161461061e57600080fd5b600454600354101561062f57600080fd5b6000600860006007600081548092919060010191905055815260200190815260200160002090508381600001908051906020019061066e929190610c1e565b50818160010181905550828160020160006101000a81548173ffffffffffffffffffffffffffffffffffffffff021916908373ffffffffffffffffffffffffffffffffffffffff1602179055506000816003018190555060008160020160146101000a81548160ff0219169083151502179055507fbc4d0e3ffbf370d5f243517e2c6b11f82282a49687fc6c0bac2af61008b01f1d33848685604051808573ffffffffffffffffffffffffffffffffffffffff1673ffffffffffffffffffffffffffffffffffffffff1681526020018473ffffffffffffffffffffffffffffffffffffffff1673ffffffffffffffffffffffffffffffffffffffff16815260200180602001838152602001828103825284818151815260200191508051906020019080838360005b838110156107b1578082015181840152602081019050610796565b50505050905090810190601f1680156107de5780820380516001836020036101000a031916815260200191505b509550505050505060405180910390a150505050565b60055481565b60018054600181600116156101000203166002900480601f0160208091040260200160405190810160405280929190818152602001828054600181600116156101000203166002900480156108905780601f1061086557610100808354040283529160200191610890565b820191906000526020600020905b81548152906001019060200180831161087357829003601f168201915b505050505081565b6000809054906101000a900473ffffffffffffffffffffffffffffffffffffffff1681565b6000809054906101000a900473ffffffffffffffffffffffffffffffffffffffff1673ffffffffffffffffffffffffffffffffffffffff163373ffffffffffffffffffffffffffffffffffffffff161461091657600080fd5b600454600354101561092757600080fd5b6000600860008381526020019081526020016000209050600015158160020160149054906101000a900460ff1615151461096057600080fd5b60026005548161096c57fe5b0481600301541161097c57600080fd5b8060020160009054906101000a900473ffffffffffffffffffffffffffffffffffffffff1673ffffffffffffffffffffffffffffffffffffffff166108fc82600101549081150290604051600060405180830381858888f193505050501580156109ea573d6000803e3d6000fd5b5060018160020160146101000a81548160ff0219169083151502179055507f0a58819e8a8484b4b953261f35757d54a8bb44412938c22784e056a69ffa17c9338260020160009054906101000a900473ffffffffffffffffffffffffffffffffffffffff168360010154604051808473ffffffffffffffffffffffffffffffffffffffff1673ffffffffffffffffffffffffffffffffffffffff1681526020018373ffffffffffffffffffffffffffffffffffffffff1673ffffffffffffffffffffffffffffffffffffffff168152602001828152602001935050505060405180910390a15050565b60066020528060005260406000206000915090505481565b6002543411610af957600080fd5b6000600660003373ffffffffffffffffffffffffffffffffffffffff1673ffffffffffffffffffffffffffffffffffffffff168152602001908152602001600020541415610b54576005600081548092919060010191905055505b34600660003373ffffffffffffffffffffffffffffffffffffffff1673ffffffffffffffffffffffffffffffffffffffff16815260200190815260200160002060008282540192505081905550346003600082825401925050819055507f906faaf913a60f38b5e8f2d6f5b163239bac2d994fa1a5d21751a51587a940573334604051808373ffffffffffffffffffffffffffffffffffffffff1673ffffffffffffffffffffffffffffffffffffffff1681526020018281526020019250505060405180910390a1565b828054600181600116156101000203166002900490600052602060002090601f016020900481019282601f10610c5f57805160ff1916838001178555610c8d565b82800160010185558215610c8d579182015b82811115610c8c578251825591602001919060010190610c71565b5b509050610c9a9190610c9e565b5090565b610cc091905b80821115610cbc576000816000905550600101610ca4565b5090565b9056fea265627a7a7231582067b9779e56fd2f0c175451156e0b19e7fcd8b75a4cf797bba53564ccf450030364736f6c63430005100032a265627a7a72315820d9ae4a3323c0a57d862a5fd52ac314c38869645cb79a557ab347edb0755bc59e64736f6c63430005100032",
  "source": "// SPDX-License-Identifier: GPL-3.0\n\npragma solidity >=0.4.22 <0.9.0;\n\nimport \"./Project.sol\";\n\n\ncontract ProjectHub {\n// Similar to a zombie factory\n    \n    // state variables\n    Project[] public projects;\n    \n    event ProjectCreated(address projectAddress, string description, uint minDonation, uint goal);\n    \n    function create_project(string memory _description, uint _minDonation, uint _goal ) public payable {\n    // Create a new project, need to provide all the necessary attributes for that project\n        Project project = new Project(_description, _minDonation, _goal);\n        projects.push(project);\n        emit ProjectCreated( address(project), _description, _minDonation, _goal);\n    }\n    \n    function get_projects() public view returns (Project[] memory){\n        // Returns the list of all the projects addresses\n        return projects;\n    }\n    \n}",
  "sourcePath": "/home/ryansacatani/Documents/SUTD/Term_8/50.037_BlockchainTechnology/TraceDonate/contracts/ProjectHub.sol",
  "compiler": {
    "name": "solc",
    "version": "0.5.16+commit.9c3226ce.Emscripten.clang"
  },
  "schemaVersion": "3.4.2",
  "updatedAt": "2021-07-28T06:58:16.300Z",
  "networkType": "ethereum",
  "devdoc": {
    "methods": {}
  },
  "userdoc": {
    "methods": {}
  }
}