{
  "contractName": "Project",
  "abi": [
    {
      "inputs": [
        {
          "internalType": "string",
          "name": "_description",
          "type": "string"
        },
        {
          "internalType": "uint256",
          "name": "_minDonation",
          "type": "uint256"
        },
        {
          "internalType": "uint256",
          "name": "_goal",
          "type": "uint256"
        }
      ],
      "payable": false,
      "stateMutability": "nonpayable",
      "type": "constructor"
    },
    {
      "anonymous": false,
      "inputs": [
        {
          "indexed": false,
          "internalType": "address",
          "name": "donor",
          "type": "address"
        },
        {
          "indexed": false,
          "internalType": "uint256",
          "name": "amount",
          "type": "uint256"
        }
      ],
      "name": "Contribute",
      "type": "event"
    },
    {
      "anonymous": false,
      "inputs": [
        {
          "indexed": false,
          "internalType": "address",
          "name": "owner",
          "type": "address"
        },
        {
          "indexed": false,
          "internalType": "address",
          "name": "recipient",
          "type": "address"
        },
        {
          "indexed": false,
          "internalType": "string",
          "name": "requestDescription",
          "type": "string"
        },
        {
          "indexed": false,
          "internalType": "uint256",
          "name": "value",
          "type": "uint256"
        }
      ],
      "name": "CreateRequest",
      "type": "event"
    },
    {
      "anonymous": false,
      "inputs": [
        {
          "indexed": false,
          "internalType": "address",
          "name": "donor",
          "type": "address"
        }
      ],
      "name": "DonorVote",
      "type": "event"
    },
    {
      "anonymous": false,
      "inputs": [
        {
          "indexed": false,
          "internalType": "address",
          "name": "owner",
          "type": "address"
        },
        {
          "indexed": false,
          "internalType": "address",
          "name": "recipient",
          "type": "address"
        },
        {
          "indexed": false,
          "internalType": "uint256",
          "name": "value",
          "type": "uint256"
        }
      ],
      "name": "PaymentMade",
      "type": "event"
    },
    {
      "constant": true,
      "inputs": [],
      "name": "description",
      "outputs": [
        {
          "internalType": "string",
          "name": "",
          "type": "string"
        }
      ],
      "payable": false,
      "stateMutability": "view",
      "type": "function"
    },
    {
      "constant": true,
      "inputs": [
        {
          "internalType": "address",
          "name": "",
          "type": "address"
        }
      ],
      "name": "donations",
      "outputs": [
        {
          "internalType": "uint256",
          "name": "",
          "type": "uint256"
        }
      ],
      "payable": false,
      "stateMutability": "view",
      "type": "function"
    },
    {
      "constant": true,
      "inputs": [],
      "name": "goal",
      "outputs": [
        {
          "internalType": "uint256",
          "name": "",
          "type": "uint256"
        }
      ],
      "payable": false,
      "stateMutability": "view",
      "type": "function"
    },
    {
      "constant": true,
      "inputs": [],
      "name": "minDonation",
      "outputs": [
        {
          "internalType": "uint256",
          "name": "",
          "type": "uint256"
        }
      ],
      "payable": false,
      "stateMutability": "view",
      "type": "function"
    },
    {
      "constant": true,
      "inputs": [],
      "name": "numberOfDonors",
      "outputs": [
        {
          "internalType": "uint256",
          "name": "",
          "type": "uint256"
        }
      ],
      "payable": false,
      "stateMutability": "view",
      "type": "function"
    },
    {
      "constant": true,
      "inputs": [],
      "name": "owner",
      "outputs": [
        {
          "internalType": "address",
          "name": "",
          "type": "address"
        }
      ],
      "payable": false,
      "stateMutability": "view",
      "type": "function"
    },
    {
      "constant": true,
      "inputs": [],
      "name": "raisedDonation",
      "outputs": [
        {
          "internalType": "uint256",
          "name": "",
          "type": "uint256"
        }
      ],
      "payable": false,
      "stateMutability": "view",
      "type": "function"
    },
    {
      "constant": false,
      "inputs": [],
      "name": "contribute",
      "outputs": [],
      "payable": true,
      "stateMutability": "payable",
      "type": "function"
    },
    {
      "constant": false,
      "inputs": [
        {
          "internalType": "string",
          "name": "_requestDescription",
          "type": "string"
        },
        {
          "internalType": "address payable",
          "name": "_recipient",
          "type": "address"
        },
        {
          "internalType": "uint256",
          "name": "_value",
          "type": "uint256"
        }
      ],
      "name": "create_request",
      "outputs": [],
      "payable": false,
      "stateMutability": "nonpayable",
      "type": "function"
    },
    {
      "constant": false,
      "inputs": [
        {
          "internalType": "uint256",
          "name": "index",
          "type": "uint256"
        }
      ],
      "name": "vote_request",
      "outputs": [],
      "payable": false,
      "stateMutability": "nonpayable",
      "type": "function"
    },
    {
      "constant": false,
      "inputs": [
        {
          "internalType": "uint256",
          "name": "index",
          "type": "uint256"
        }
      ],
      "name": "make_payment",
      "outputs": [],
      "payable": false,
      "stateMutability": "nonpayable",
      "type": "function"
    },
    {
      "constant": true,
      "inputs": [],
      "name": "get_summary",
      "outputs": [
        {
          "internalType": "address",
          "name": "_owner",
          "type": "address"
        },
        {
          "internalType": "string",
          "name": "_description",
          "type": "string"
        },
        {
          "internalType": "uint256",
          "name": "_minDonation",
          "type": "uint256"
        },
        {
          "internalType": "uint256",
          "name": "_raisedDonation",
          "type": "uint256"
        },
        {
          "internalType": "uint256",
          "name": "_goal",
          "type": "uint256"
        },
        {
          "internalType": "uint256",
          "name": "_numberOfDonors",
          "type": "uint256"
        }
      ],
      "payable": false,
      "stateMutability": "view",
      "type": "function"
    }
  ],
  "bytecode": "0x608060405260006003553480156200001657600080fd5b506040516200111438038062001114833981810160405260608110156200003c57600080fd5b81019080805160405193929190846401000000008211156200005d57600080fd5b838201915060208201858111156200007457600080fd5b82518660018202830111640100000000821117156200009257600080fd5b8083526020830192505050908051906020019080838360005b83811015620000c8578082015181840152602081019050620000ab565b50505050905090810190601f168015620000f65780820380516001836020036101000a031916815260200191505b50604052602001805190602001909291908051906020019092919050505082600190805190602001906200012c9291906200018c565b508160028190555080600481905550336000806101000a81548173ffffffffffffffffffffffffffffffffffffffff021916908373ffffffffffffffffffffffffffffffffffffffff16021790555060006007819055505050506200023b565b828054600181600116156101000203166002900490600052602060002090601f016020900481019282601f10620001cf57805160ff191683800117855562000200565b8280016001018555821562000200579182015b82811115620001ff578251825591602001919060010190620001e2565b5b5090506200020f919062000213565b5090565b6200023891905b80821115620002345760008160009055506001016200021a565b5090565b90565b610ec9806200024b6000396000f3fe6080604052600436106100a75760003560e01c80637284e416116100645780637284e416146102855780638da5cb5b14610315578063a222e6651461036c578063bdec12301461044b578063cc6cb19a14610486578063d7bb99ba146104eb576100a7565b806308fccafc146100ac578063110229c1146100e75780631c0e022514610112578063401938831461013d578063410bbe801461016857806364b2e2d91461025a575b600080fd5b3480156100b857600080fd5b506100e5600480360360208110156100cf57600080fd5b81019080803590602001909291905050506104f5565b005b3480156100f357600080fd5b506100fc61069d565b6040518082815260200191505060405180910390f35b34801561011e57600080fd5b506101276106a3565b6040518082815260200191505060405180910390f35b34801561014957600080fd5b506101526106a9565b6040518082815260200191505060405180910390f35b34801561017457600080fd5b506102586004803603606081101561018b57600080fd5b81019080803590602001906401000000008111156101a857600080fd5b8201836020820111156101ba57600080fd5b803590602001918460018302840111640100000000831117156101dc57600080fd5b91908080601f016020809104026020016040519081016040528093929190818152602001838380828437600081840152601f19601f820116905080830192505050505050509192919290803573ffffffffffffffffffffffffffffffffffffffff169060200190929190803590602001909291905050506106af565b005b34801561026657600080fd5b5061026f6108de565b6040518082815260200191505060405180910390f35b34801561029157600080fd5b5061029a6108e4565b6040518080602001828103825283818151815260200191508051906020019080838360005b838110156102da5780820151818401526020810190506102bf565b50505050905090810190601f1680156103075780820380516001836020036101000a031916815260200191505b509250505060405180910390f35b34801561032157600080fd5b5061032a610982565b604051808273ffffffffffffffffffffffffffffffffffffffff1673ffffffffffffffffffffffffffffffffffffffff16815260200191505060405180910390f35b34801561037857600080fd5b506103816109a7565b604051808773ffffffffffffffffffffffffffffffffffffffff1673ffffffffffffffffffffffffffffffffffffffff16815260200180602001868152602001858152602001848152602001838152602001828103825287818151815260200191508051906020019080838360005b8381101561040b5780820151818401526020810190506103f0565b50505050905090810190601f1680156104385780820380516001836020036101000a031916815260200191505b5097505050505050505060405180910390f35b34801561045757600080fd5b506104846004803603602081101561046e57600080fd5b8101908080359060200190929190505050610a8e565b005b34801561049257600080fd5b506104d5600480360360208110156104a957600080fd5b81019080803573ffffffffffffffffffffffffffffffffffffffff169060200190929190505050610ca4565b6040518082815260200191505060405180910390f35b6104f3610cbc565b005b600454600354101561050657600080fd5b60006008600083815260200190815260200160002090506000600660003373ffffffffffffffffffffffffffffffffffffffff1673ffffffffffffffffffffffffffffffffffffffff168152602001908152602001600020541161056957600080fd5b600015158160040160003373ffffffffffffffffffffffffffffffffffffffff1673ffffffffffffffffffffffffffffffffffffffff16815260200190815260200160002060009054906101000a900460ff161515146105c857600080fd5b60018160040160003373ffffffffffffffffffffffffffffffffffffffff1673ffffffffffffffffffffffffffffffffffffffff16815260200190815260200160002060006101000a81548160ff02191690831515021790555080600301600081548092919060010191905055507f137a99be36aa5d9c4a28207ff686d8d558234cb64a943ed60ad3a116c64fe82a33604051808273ffffffffffffffffffffffffffffffffffffffff1673ffffffffffffffffffffffffffffffffffffffff16815260200191505060405180910390a15050565b60035481565b60025481565b60045481565b6000809054906101000a900473ffffffffffffffffffffffffffffffffffffffff1673ffffffffffffffffffffffffffffffffffffffff163373ffffffffffffffffffffffffffffffffffffffff161461070857600080fd5b600454600354101561071957600080fd5b60006008600060076000815480929190600101919050558152602001908152602001600020905083816000019080519060200190610758929190610def565b50818160010181905550828160020160006101000a81548173ffffffffffffffffffffffffffffffffffffffff021916908373ffffffffffffffffffffffffffffffffffffffff1602179055506000816003018190555060008160020160146101000a81548160ff0219169083151502179055507fbc4d0e3ffbf370d5f243517e2c6b11f82282a49687fc6c0bac2af61008b01f1d33848685604051808573ffffffffffffffffffffffffffffffffffffffff1673ffffffffffffffffffffffffffffffffffffffff1681526020018473ffffffffffffffffffffffffffffffffffffffff1673ffffffffffffffffffffffffffffffffffffffff16815260200180602001838152602001828103825284818151815260200191508051906020019080838360005b8381101561089b578082015181840152602081019050610880565b50505050905090810190601f1680156108c85780820380516001836020036101000a031916815260200191505b509550505050505060405180910390a150505050565b60055481565b60018054600181600116156101000203166002900480601f01602080910402602001604051908101604052809291908181526020018280546001816001161561010002031660029004801561097a5780601f1061094f5761010080835404028352916020019161097a565b820191906000526020600020905b81548152906001019060200180831161095d57829003601f168201915b505050505081565b6000809054906101000a900473ffffffffffffffffffffffffffffffffffffffff1681565b600060606000806000806000809054906101000a900473ffffffffffffffffffffffffffffffffffffffff16955060018054600181600116156101000203166002900480601f016020809104026020016040519081016040528092919081815260200182805460018160011615610100020316600290048015610a6b5780601f10610a4057610100808354040283529160200191610a6b565b820191906000526020600020905b815481529060010190602001808311610a4e57829003601f168201915b505050505094506002549350600354925060045491506005549050909192939495565b6000809054906101000a900473ffffffffffffffffffffffffffffffffffffffff1673ffffffffffffffffffffffffffffffffffffffff163373ffffffffffffffffffffffffffffffffffffffff1614610ae757600080fd5b6004546003541015610af857600080fd5b6000600860008381526020019081526020016000209050600015158160020160149054906101000a900460ff16151514610b3157600080fd5b600260055481610b3d57fe5b04816003015411610b4d57600080fd5b8060020160009054906101000a900473ffffffffffffffffffffffffffffffffffffffff1673ffffffffffffffffffffffffffffffffffffffff166108fc82600101549081150290604051600060405180830381858888f19350505050158015610bbb573d6000803e3d6000fd5b5060018160020160146101000a81548160ff0219169083151502179055507f0a58819e8a8484b4b953261f35757d54a8bb44412938c22784e056a69ffa17c9338260020160009054906101000a900473ffffffffffffffffffffffffffffffffffffffff168360010154604051808473ffffffffffffffffffffffffffffffffffffffff1673ffffffffffffffffffffffffffffffffffffffff1681526020018373ffffffffffffffffffffffffffffffffffffffff1673ffffffffffffffffffffffffffffffffffffffff168152602001828152602001935050505060405180910390a15050565b60066020528060005260406000206000915090505481565b6002543411610cca57600080fd5b6000600660003373ffffffffffffffffffffffffffffffffffffffff1673ffffffffffffffffffffffffffffffffffffffff168152602001908152602001600020541415610d25576005600081548092919060010191905055505b34600660003373ffffffffffffffffffffffffffffffffffffffff1673ffffffffffffffffffffffffffffffffffffffff16815260200190815260200160002060008282540192505081905550346003600082825401925050819055507f906faaf913a60f38b5e8f2d6f5b163239bac2d994fa1a5d21751a51587a940573334604051808373ffffffffffffffffffffffffffffffffffffffff1673ffffffffffffffffffffffffffffffffffffffff1681526020018281526020019250505060405180910390a1565b828054600181600116156101000203166002900490600052602060002090601f016020900481019282601f10610e3057805160ff1916838001178555610e5e565b82800160010185558215610e5e579182015b82811115610e5d578251825591602001919060010190610e42565b5b509050610e6b9190610e6f565b5090565b610e9191905b80821115610e8d576000816000905550600101610e75565b5090565b9056fea265627a7a7231582007b8d4d84a24e3669f37836313ddab7cd2e202f71f7c82dffa46cd4649d62d2264736f6c63430005100032",
  "source": "// SPDX-License-Identifier: GPL-3.0\npragma solidity >=0.4.22 <0.9.0;\n\ncontract Project{\n    // Storage state cariables\n    address public owner;\n    string public description;\n    uint public minDonation;\n    uint public raisedDonation = 0;\n    uint public goal;\n    uint public numberOfDonors;\n    mapping (address => uint) public donations; // stores the donation of each donor\n    uint numRequests;\n    mapping (uint => Request) requests;\n    \n    // For each spending request, need to create a new instance of request\n    struct Request {\n        string requestDescription;\n        uint value;\n        address payable recipient; // This is the address that the beneificiary want to send funds to.\n        bool completed;\n        uint numberOfVoters;\n        mapping (address=>bool) voters;\n    }\n    \n    // Events needed by the web app\n    event Contribute( address donor, uint amount);\n    event CreateRequest( address owner, address recipient, string requestDescription, uint value );\n    event PaymentMade( address owner, address recipient, uint value );\n    event DonorVote( address donor);\n    \n    // Modifiers to automatically check a condition, prior to executing a function\n    modifier onlyAdmin{\n        require(msg.sender == owner);\n        _; // This is just syntax, this tells the modifier to continue with the rest of the function after it calls its body\n    }\n    \n    modifier goalReached {\n        // Allow owner to create spending requrest only when the goal is reached\n        require(raisedDonation >= goal);\n        _;\n    }\n    \n    constructor( string memory _description, uint _minDonation, uint _goal) public {\n        description = _description;\n        minDonation = _minDonation;\n        goal = _goal;\n        owner = msg.sender; // The creator of the project is the owner of the project\n        numRequests = 0;\n    }\n    \n    function contribute() public payable{\n        // A payable function will store the value that is sent to that account\n        // and will be trapped there unless there is a withdraw function\n        // Conditions for executing the rest of the function\n        require( msg.value > minDonation);\n        // Checking whether this is the first time the person is contributing\n        if(donations[msg.sender] == 0){\n            // If its his first time, need to invrement the total number of contributors\n            numberOfDonors ++;\n        }\n        // Add the amount sent to his previous contributions\n        donations[msg.sender] += msg.value;\n        raisedDonation += msg.value;\n        emit Contribute( msg.sender, msg.value);\n    }\n    \n    // Project owner creates a request before he can spend his money\n    function create_request( string memory _requestDescription, address payable _recipient, uint _value) public onlyAdmin goalReached{\n        // instantiating a request struct in memory\n        // Store request struct variable from mapping in storage\n        Request storage newRequest = requests[numRequests++];\n        newRequest.requestDescription = _requestDescription;\n        newRequest.value = _value;\n        newRequest.recipient = _recipient;\n        newRequest.numberOfVoters = 0;\n        newRequest.completed = false;\n        emit CreateRequest( msg.sender, _recipient, _requestDescription, _value);\n    }\n    \n    function vote_request(uint index) public goalReached{\n        \n        // Direct Reference a specific spending request inside the requests dynamic array\n        // by calling storage here,, any changes that we make to thisRequest will\n        // also affect the request in tthe specific index in requests array\n        Request storage thisRequest =  requests[index];\n        // Checking for Conditions\n        // The voter also needs to be a donor\n        require(donations[msg.sender] > 0);\n        // The voter cannot double vote\n        require(thisRequest.voters[msg.sender] == false);\n        // Counting the vote \n        // We only count positive votes\n        thisRequest.voters[msg.sender] = true;\n        thisRequest.numberOfVoters++;\n        emit DonorVote(msg.sender);\n    }\n    \n    \n    function make_payment( uint index) public onlyAdmin goalReached{\n        // Directly reference the specfic spending request inside the request dynamic array\n        Request storage thisRequest = requests[index];\n        \n        // Check necessary Conditions \n        // Cannot allow double payment for the same request\n        require(thisRequest.completed == false);\n        // Number of voters that approved should be more thatn 50% voters\n        require(thisRequest.numberOfVoters > numberOfDonors /2);\n        \n        // Performing the transder operation\n        thisRequest.recipient.transfer(thisRequest.value);\n        thisRequest.completed = true;\n        emit PaymentMade( msg.sender, thisRequest.recipient, thisRequest.value );\n    }\n\n    function get_summary() public view returns ( \n        address _owner, \n        string memory _description,\n        uint _minDonation,\n        uint _raisedDonation,\n        uint _goal,\n        uint _numberOfDonors ){\n        _owner = owner;\n        _description = description;\n        _minDonation = minDonation;\n        _raisedDonation = raisedDonation;\n        _goal = goal;\n        _numberOfDonors = numberOfDonors;\n    }\n    \n}\n\n\ncontract ProjectHub {\n// Similar to a zombie factory\n    \n    // state variables\n    Project[] public projects;\n    \n    event ProjectCreated(address projectAddress, string description, uint minDonation, uint goal);\n    \n    function create_project(string memory _description, uint _minDonation, uint _goal ) public payable {\n    // Create a new project, need to provide all the necessary attributes for that project\n        Project project = new Project(_description, _minDonation, _goal);\n        projects.push(project);\n        emit ProjectCreated( address(project), _description, _minDonation, _goal);\n    }\n    \n    function get_projects() public view returns (Project[] memory){\n        // Returns the list of all the projects addresses\n        return projects;\n    }\n    \n}",
  "sourcePath": "/home/ryansacatani/Documents/SUTD/Term_8/50.037_BlockchainTechnology/TraceDonate/contracts/traceDonate.sol",
  "compiler": {
    "name": "solc",
    "version": "0.5.16+commit.9c3226ce.Emscripten.clang"
  },
  "schemaVersion": "3.4.2",
  "updatedAt": "2021-08-08T13:09:56.909Z",
  "devdoc": {
    "methods": {}
  },
  "userdoc": {
    "methods": {}
  }
}