{
  "contractName": "Project",
  "abi": [
    {
      "inputs": [
        {
          "internalType": "string",
          "name": "_name",
          "type": "string"
        },
        {
          "internalType": "string",
          "name": "_description",
          "type": "string"
        },
        {
          "internalType": "uint256",
          "name": "_minDonation",
          "type": "uint256"
        },
        {
          "internalType": "uint256",
          "name": "_goal",
          "type": "uint256"
        },
        {
          "internalType": "address",
          "name": "_owner",
          "type": "address"
        }
      ],
      "payable": false,
      "stateMutability": "nonpayable",
      "type": "constructor"
    },
    {
      "anonymous": false,
      "inputs": [
        {
          "indexed": false,
          "internalType": "address",
          "name": "donor",
          "type": "address"
        },
        {
          "indexed": false,
          "internalType": "uint256",
          "name": "amount",
          "type": "uint256"
        }
      ],
      "name": "Contribute",
      "type": "event"
    },
    {
      "anonymous": false,
      "inputs": [
        {
          "indexed": false,
          "internalType": "address",
          "name": "owner",
          "type": "address"
        },
        {
          "indexed": false,
          "internalType": "address",
          "name": "recipient",
          "type": "address"
        },
        {
          "indexed": false,
          "internalType": "string",
          "name": "requestDescription",
          "type": "string"
        },
        {
          "indexed": false,
          "internalType": "uint256",
          "name": "value",
          "type": "uint256"
        }
      ],
      "name": "CreateRequest",
      "type": "event"
    },
    {
      "anonymous": false,
      "inputs": [
        {
          "indexed": false,
          "internalType": "address",
          "name": "donor",
          "type": "address"
        }
      ],
      "name": "DonorVote",
      "type": "event"
    },
    {
      "anonymous": false,
      "inputs": [
        {
          "indexed": false,
          "internalType": "address",
          "name": "owner",
          "type": "address"
        },
        {
          "indexed": false,
          "internalType": "address",
          "name": "recipient",
          "type": "address"
        },
        {
          "indexed": false,
          "internalType": "uint256",
          "name": "value",
          "type": "uint256"
        }
      ],
      "name": "PaymentMade",
      "type": "event"
    },
    {
      "constant": true,
      "inputs": [],
      "name": "description",
      "outputs": [
        {
          "internalType": "string",
          "name": "",
          "type": "string"
        }
      ],
      "payable": false,
      "stateMutability": "view",
      "type": "function"
    },
    {
      "constant": true,
      "inputs": [
        {
          "internalType": "address",
          "name": "",
          "type": "address"
        }
      ],
      "name": "donations",
      "outputs": [
        {
          "internalType": "uint256",
          "name": "",
          "type": "uint256"
        }
      ],
      "payable": false,
      "stateMutability": "view",
      "type": "function"
    },
    {
      "constant": true,
      "inputs": [],
      "name": "goal",
      "outputs": [
        {
          "internalType": "uint256",
          "name": "",
          "type": "uint256"
        }
      ],
      "payable": false,
      "stateMutability": "view",
      "type": "function"
    },
    {
      "constant": true,
      "inputs": [],
      "name": "minDonation",
      "outputs": [
        {
          "internalType": "uint256",
          "name": "",
          "type": "uint256"
        }
      ],
      "payable": false,
      "stateMutability": "view",
      "type": "function"
    },
    {
      "constant": true,
      "inputs": [],
      "name": "name",
      "outputs": [
        {
          "internalType": "string",
          "name": "",
          "type": "string"
        }
      ],
      "payable": false,
      "stateMutability": "view",
      "type": "function"
    },
    {
      "constant": true,
      "inputs": [],
      "name": "numberOfDonors",
      "outputs": [
        {
          "internalType": "uint256",
          "name": "",
          "type": "uint256"
        }
      ],
      "payable": false,
      "stateMutability": "view",
      "type": "function"
    },
    {
      "constant": true,
      "inputs": [],
      "name": "owner",
      "outputs": [
        {
          "internalType": "address",
          "name": "",
          "type": "address"
        }
      ],
      "payable": false,
      "stateMutability": "view",
      "type": "function"
    },
    {
      "constant": true,
      "inputs": [],
      "name": "raisedDonation",
      "outputs": [
        {
          "internalType": "uint256",
          "name": "",
          "type": "uint256"
        }
      ],
      "payable": false,
      "stateMutability": "view",
      "type": "function"
    },
    {
      "constant": false,
      "inputs": [],
      "name": "contribute",
      "outputs": [],
      "payable": true,
      "stateMutability": "payable",
      "type": "function"
    },
    {
      "constant": false,
      "inputs": [
        {
          "internalType": "string",
          "name": "_requestDescription",
          "type": "string"
        },
        {
          "internalType": "address payable",
          "name": "_recipient",
          "type": "address"
        },
        {
          "internalType": "uint256",
          "name": "_value",
          "type": "uint256"
        }
      ],
      "name": "create_request",
      "outputs": [],
      "payable": false,
      "stateMutability": "nonpayable",
      "type": "function"
    },
    {
      "constant": false,
      "inputs": [
        {
          "internalType": "uint256",
          "name": "index",
          "type": "uint256"
        }
      ],
      "name": "vote_request",
      "outputs": [],
      "payable": false,
      "stateMutability": "nonpayable",
      "type": "function"
    },
    {
      "constant": false,
      "inputs": [
        {
          "internalType": "uint256",
          "name": "index",
          "type": "uint256"
        }
      ],
      "name": "make_payment",
      "outputs": [],
      "payable": false,
      "stateMutability": "nonpayable",
      "type": "function"
    },
    {
      "constant": true,
      "inputs": [],
      "name": "get_summary",
      "outputs": [
        {
          "internalType": "address",
          "name": "_owner",
          "type": "address"
        },
        {
          "internalType": "string",
          "name": "_name",
          "type": "string"
        },
        {
          "internalType": "string",
          "name": "_description",
          "type": "string"
        },
        {
          "internalType": "uint256",
          "name": "_minDonation",
          "type": "uint256"
        },
        {
          "internalType": "uint256",
          "name": "_raisedDonation",
          "type": "uint256"
        },
        {
          "internalType": "uint256",
          "name": "_goal",
          "type": "uint256"
        },
        {
          "internalType": "uint256",
          "name": "_numberOfDonors",
          "type": "uint256"
        },
        {
          "internalType": "uint256",
          "name": "_numRequests",
          "type": "uint256"
        }
      ],
      "payable": false,
      "stateMutability": "view",
      "type": "function"
    },
    {
      "constant": true,
      "inputs": [
        {
          "internalType": "uint256",
          "name": "index",
          "type": "uint256"
        }
      ],
      "name": "get_request_details",
      "outputs": [
        {
          "internalType": "string",
          "name": "_requestDescription",
          "type": "string"
        },
        {
          "internalType": "uint256",
          "name": "_value",
          "type": "uint256"
        },
        {
          "internalType": "address",
          "name": "_recipient",
          "type": "address"
        },
        {
          "internalType": "bool",
          "name": "_completed",
          "type": "bool"
        },
        {
          "internalType": "uint256",
          "name": "_yesVotes",
          "type": "uint256"
        }
      ],
      "payable": false,
      "stateMutability": "view",
      "type": "function"
    }
  ],
  "bytecode": "0x608060405260006004553480156200001657600080fd5b50604051620016b4380380620016b4833981810160405260a08110156200003c57600080fd5b81019080805160405193929190846401000000008211156200005d57600080fd5b838201915060208201858111156200007457600080fd5b82518660018202830111640100000000821117156200009257600080fd5b8083526020830192505050908051906020019080838360005b83811015620000c8578082015181840152602081019050620000ab565b50505050905090810190601f168015620000f65780820380516001836020036101000a031916815260200191505b50604052602001805160405193929190846401000000008211156200011a57600080fd5b838201915060208201858111156200013157600080fd5b82518660018202830111640100000000821117156200014f57600080fd5b8083526020830192505050908051906020019080838360005b838110156200018557808201518184015260208101905062000168565b50505050905090810190601f168015620001b35780820380516001836020036101000a031916815260200191505b506040526020018051906020019092919080519060200190929190805190602001909291905050508460029080519060200190620001f39291906200026e565b5083600190805190602001906200020c9291906200026e565b508260038190555081600581905550806000806101000a81548173ffffffffffffffffffffffffffffffffffffffff021916908373ffffffffffffffffffffffffffffffffffffffff160217905550600060088190555050505050506200031d565b828054600181600116156101000203166002900490600052602060002090601f016020900481019282601f10620002b157805160ff1916838001178555620002e2565b82800160010185558215620002e2579182015b82811115620002e1578251825591602001919060010190620002c4565b5b509050620002f19190620002f5565b5090565b6200031a91905b8082111562000316576000816000905550600101620002fc565b5090565b90565b611387806200032d6000396000f3fe6080604052600436106100dd5760003560e01c80637284e4161161007f578063bdec123011610059578063bdec123014610584578063c98de5be146105bf578063cc6cb19a146106bf578063d7bb99ba14610724576100dd565b80637284e4161461034b5780638da5cb5b146103db578063a222e66514610432576100dd565b80631c0e0225116100bb5780631c0e0225146101d85780634019388314610203578063410bbe801461022e57806364b2e2d914610320576100dd565b806306fdde03146100e257806308fccafc14610172578063110229c1146101ad575b600080fd5b3480156100ee57600080fd5b506100f761072e565b6040518080602001828103825283818151815260200191508051906020019080838360005b8381101561013757808201518184015260208101905061011c565b50505050905090810190601f1680156101645780820380516001836020036101000a031916815260200191505b509250505060405180910390f35b34801561017e57600080fd5b506101ab6004803603602081101561019557600080fd5b81019080803590602001909291905050506107cc565b005b3480156101b957600080fd5b506101c2610963565b6040518082815260200191505060405180910390f35b3480156101e457600080fd5b506101ed610969565b6040518082815260200191505060405180910390f35b34801561020f57600080fd5b5061021861096f565b6040518082815260200191505060405180910390f35b34801561023a57600080fd5b5061031e6004803603606081101561025157600080fd5b810190808035906020019064010000000081111561026e57600080fd5b82018360208201111561028057600080fd5b803590602001918460018302840111640100000000831117156102a257600080fd5b91908080601f016020809104026020016040519081016040528093929190818152602001838380828437600081840152601f19601f820116905080830192505050505050509192919290803573ffffffffffffffffffffffffffffffffffffffff16906020019092919080359060200190929190505050610975565b005b34801561032c57600080fd5b50610335610bb2565b6040518082815260200191505060405180910390f35b34801561035757600080fd5b50610360610bb8565b6040518080602001828103825283818151815260200191508051906020019080838360005b838110156103a0578082015181840152602081019050610385565b50505050905090810190601f1680156103cd5780820380516001836020036101000a031916815260200191505b509250505060405180910390f35b3480156103e757600080fd5b506103f0610c56565b604051808273ffffffffffffffffffffffffffffffffffffffff1673ffffffffffffffffffffffffffffffffffffffff16815260200191505060405180910390f35b34801561043e57600080fd5b50610447610c7b565b604051808973ffffffffffffffffffffffffffffffffffffffff1673ffffffffffffffffffffffffffffffffffffffff168152602001806020018060200188815260200187815260200186815260200185815260200184815260200183810383528a818151815260200191508051906020019080838360005b838110156104db5780820151818401526020810190506104c0565b50505050905090810190601f1680156105085780820380516001836020036101000a031916815260200191505b50838103825289818151815260200191508051906020019080838360005b83811015610541578082015181840152602081019050610526565b50505050905090810190601f16801561056e5780820380516001836020036101000a031916815260200191505b509a505050505050505050505060405180910390f35b34801561059057600080fd5b506105bd600480360360208110156105a757600080fd5b8101908080359060200190929190505050610e09565b005b3480156105cb57600080fd5b506105f8600480360360208110156105e257600080fd5b810190808035906020019092919050505061100e565b60405180806020018681526020018573ffffffffffffffffffffffffffffffffffffffff1673ffffffffffffffffffffffffffffffffffffffff16815260200184151515158152602001838152602001828103825287818151815260200191508051906020019080838360005b83811015610680578082015181840152602081019050610665565b50505050905090810190601f1680156106ad5780820380516001836020036101000a031916815260200191505b50965050505050505060405180910390f35b3480156106cb57600080fd5b5061070e600480360360208110156106e257600080fd5b81019080803573ffffffffffffffffffffffffffffffffffffffff169060200190929190505050611161565b6040518082815260200191505060405180910390f35b61072c611179565b005b60028054600181600116156101000203166002900480601f0160208091040260200160405190810160405280929190818152602001828054600181600116156101000203166002900480156107c45780601f10610799576101008083540402835291602001916107c4565b820191906000526020600020905b8154815290600101906020018083116107a757829003601f168201915b505050505081565b60006009600083815260200190815260200160002090506000600760003373ffffffffffffffffffffffffffffffffffffffff1673ffffffffffffffffffffffffffffffffffffffff168152602001908152602001600020541161082f57600080fd5b600015158160040160003373ffffffffffffffffffffffffffffffffffffffff1673ffffffffffffffffffffffffffffffffffffffff16815260200190815260200160002060009054906101000a900460ff1615151461088e57600080fd5b60018160040160003373ffffffffffffffffffffffffffffffffffffffff1673ffffffffffffffffffffffffffffffffffffffff16815260200190815260200160002060006101000a81548160ff02191690831515021790555080600301600081548092919060010191905055507f137a99be36aa5d9c4a28207ff686d8d558234cb64a943ed60ad3a116c64fe82a33604051808273ffffffffffffffffffffffffffffffffffffffff1673ffffffffffffffffffffffffffffffffffffffff16815260200191505060405180910390a15050565b60045481565b60035481565b60055481565b6000809054906101000a900473ffffffffffffffffffffffffffffffffffffffff1673ffffffffffffffffffffffffffffffffffffffff163373ffffffffffffffffffffffffffffffffffffffff16146109ce57600080fd5b6004548111156109dd57600080fd5b8060046000828254039250508190555060006009600060086000815480929190600101919050558152602001908152602001600020905083816000019080519060200190610a2c9291906112ad565b50818160010181905550828160020160006101000a81548173ffffffffffffffffffffffffffffffffffffffff021916908373ffffffffffffffffffffffffffffffffffffffff1602179055506000816003018190555060008160020160146101000a81548160ff0219169083151502179055507fbc4d0e3ffbf370d5f243517e2c6b11f82282a49687fc6c0bac2af61008b01f1d33848685604051808573ffffffffffffffffffffffffffffffffffffffff1673ffffffffffffffffffffffffffffffffffffffff1681526020018473ffffffffffffffffffffffffffffffffffffffff1673ffffffffffffffffffffffffffffffffffffffff16815260200180602001838152602001828103825284818151815260200191508051906020019080838360005b83811015610b6f578082015181840152602081019050610b54565b50505050905090810190601f168015610b9c5780820380516001836020036101000a031916815260200191505b509550505050505060405180910390a150505050565b60065481565b60018054600181600116156101000203166002900480601f016020809104026020016040519081016040528092919081815260200182805460018160011615610100020316600290048015610c4e5780601f10610c2357610100808354040283529160200191610c4e565b820191906000526020600020905b815481529060010190602001808311610c3157829003601f168201915b505050505081565b6000809054906101000a900473ffffffffffffffffffffffffffffffffffffffff1681565b6000606080600080600080600060028054600181600116156101000203166002900480601f016020809104026020016040519081016040528092919081815260200182805460018160011615610100020316600290048015610d1e5780601f10610cf357610100808354040283529160200191610d1e565b820191906000526020600020905b815481529060010190602001808311610d0157829003601f168201915b505050505096506000809054906101000a900473ffffffffffffffffffffffffffffffffffffffff16975060018054600181600116156101000203166002900480601f016020809104026020016040519081016040528092919081815260200182805460018160011615610100020316600290048015610ddf5780601f10610db457610100808354040283529160200191610ddf565b820191906000526020600020905b815481529060010190602001808311610dc257829003601f168201915b50505050509550600354945060045493506005549250600654915060085490509091929394959697565b6000809054906101000a900473ffffffffffffffffffffffffffffffffffffffff1673ffffffffffffffffffffffffffffffffffffffff163373ffffffffffffffffffffffffffffffffffffffff1614610e6257600080fd5b6000600960008381526020019081526020016000209050600015158160020160149054906101000a900460ff16151514610e9b57600080fd5b600260065481610ea757fe5b04816003015411610eb757600080fd5b8060020160009054906101000a900473ffffffffffffffffffffffffffffffffffffffff1673ffffffffffffffffffffffffffffffffffffffff166108fc82600101549081150290604051600060405180830381858888f19350505050158015610f25573d6000803e3d6000fd5b5060018160020160146101000a81548160ff0219169083151502179055507f0a58819e8a8484b4b953261f35757d54a8bb44412938c22784e056a69ffa17c9338260020160009054906101000a900473ffffffffffffffffffffffffffffffffffffffff168360010154604051808473ffffffffffffffffffffffffffffffffffffffff1673ffffffffffffffffffffffffffffffffffffffff1681526020018373ffffffffffffffffffffffffffffffffffffffff1673ffffffffffffffffffffffffffffffffffffffff168152602001828152602001935050505060405180910390a15050565b6060600080600080600960008781526020019081526020016000206000018054600181600116156101000203166002900480601f0160208091040260200160405190810160405280929190818152602001828054600181600116156101000203166002900480156110c05780601f10611095576101008083540402835291602001916110c0565b820191906000526020600020905b8154815290600101906020018083116110a357829003601f168201915b50505050509450600960008781526020019081526020016000206001015493506009600087815260200190815260200160002060020160009054906101000a900473ffffffffffffffffffffffffffffffffffffffff1692506009600087815260200190815260200160002060020160149054906101000a900460ff1691506009600087815260200190815260200160002060030154905091939590929450565b60076020528060005260406000206000915090505481565b60035434101561118857600080fd5b6000600760003373ffffffffffffffffffffffffffffffffffffffff1673ffffffffffffffffffffffffffffffffffffffff1681526020019081526020016000205414156111e3576006600081548092919060010191905055505b34600760003373ffffffffffffffffffffffffffffffffffffffff1673ffffffffffffffffffffffffffffffffffffffff16815260200190815260200160002060008282540192505081905550346004600082825401925050819055507f906faaf913a60f38b5e8f2d6f5b163239bac2d994fa1a5d21751a51587a940573334604051808373ffffffffffffffffffffffffffffffffffffffff1673ffffffffffffffffffffffffffffffffffffffff1681526020018281526020019250505060405180910390a1565b828054600181600116156101000203166002900490600052602060002090601f016020900481019282601f106112ee57805160ff191683800117855561131c565b8280016001018555821561131c579182015b8281111561131b578251825591602001919060010190611300565b5b509050611329919061132d565b5090565b61134f91905b8082111561134b576000816000905550600101611333565b5090565b9056fea265627a7a72315820aa56228ef66b0dd0cc6c16e4150a7f497198cbe5c511e0c2da7a13c5a2b84fe564736f6c63430005100032",
  "source": "// SPDX-License-Identifier: GPL-3.0\r\npragma solidity >=0.4.22 <0.9.0;\r\n\r\ncontract Project{\r\n    // Storage state cariables\r\n    address public owner;\r\n    string public description;\r\n    string public name;\r\n    uint public minDonation;\r\n    uint public raisedDonation = 0;\r\n    uint public goal;\r\n    uint public numberOfDonors;\r\n    mapping (address => uint) public donations; // stores the donation of each donor\r\n    uint numRequests;\r\n    mapping (uint => Request) requests;\r\n    \r\n    // For each spending request, need to create a new instance of request\r\n    struct Request {\r\n        string requestDescription;\r\n        uint value;\r\n        address payable recipient; // This is the address that the beneificiary want to send funds to.\r\n        bool completed;\r\n        uint yesVotes;\r\n        mapping (address=>bool) voters;\r\n    }\r\n    \r\n    // Events needed by the web app\r\n    event Contribute( address donor, uint amount);\r\n    event CreateRequest( address owner, address recipient, string requestDescription, uint value );\r\n    event PaymentMade( address owner, address recipient, uint value );\r\n    event DonorVote( address donor);\r\n    \r\n    // Modifiers to automatically check a condition, prior to executing a function\r\n    modifier onlyAdmin{\r\n        require(msg.sender == owner);\r\n        _; // This is just syntax, this tells the modifier to continue with the rest of the function after it calls its body\r\n    }\r\n    \r\n    modifier goalReached {\r\n        // Allow owner to create spending requrest only when the goal is reached\r\n        require(raisedDonation >= goal);\r\n        _;\r\n    }\r\n    \r\n    constructor( string memory _name, string memory _description, uint _minDonation, uint _goal, address _owner) public {\r\n        name = _name;\r\n        description = _description;\r\n        minDonation = _minDonation;\r\n        goal = _goal;\r\n        owner = _owner; // The creator of the project is the owner of the project\r\n        numRequests = 0;\r\n    }\r\n    \r\n    function contribute() public payable{\r\n        // A payable function will store the value that is sent to that account\r\n        // and will be trapped there unless there is a withdraw function\r\n        // Conditions for executing the rest of the function\r\n        require( msg.value >= minDonation);\r\n        // Checking whether this is the first time the person is contributing\r\n        if(donations[msg.sender] == 0){\r\n            // If its his first time, need to invrement the total number of contributors\r\n            numberOfDonors ++;\r\n        }\r\n        // Add the amount sent to his previous contributions\r\n        donations[msg.sender] += msg.value;\r\n        raisedDonation += msg.value;\r\n        emit Contribute( msg.sender, msg.value);\r\n    }\r\n    \r\n    // Project owner creates a request before he can spend his money\r\n    function create_request( string memory _requestDescription, address payable _recipient, uint _value) public onlyAdmin {\r\n        // Check request is legit\r\n        require( _value <= raisedDonation);\r\n\r\n        // Freeze requested money\r\n        raisedDonation -= _value;\r\n\r\n        // instantiating a request struct in memory\r\n        // Store request struct variable from mapping in storage\r\n        Request storage newRequest = requests[numRequests++];\r\n        newRequest.requestDescription = _requestDescription;\r\n        newRequest.value = _value;\r\n        newRequest.recipient = _recipient;\r\n        newRequest.yesVotes = 0;\r\n        newRequest.completed = false;\r\n\r\n        emit CreateRequest( msg.sender, _recipient, _requestDescription, _value);\r\n    }\r\n    \r\n    function vote_request(uint index) public {\r\n        \r\n        // Direct Reference a specific spending request inside the requests dynamic array\r\n        // by calling storage here,, any changes that we make to thisRequest will\r\n        // also affect the request in the specific index in requests array\r\n        Request storage thisRequest =  requests[index];\r\n        // Checking for Conditions\r\n        // The voter also needs to be a donor\r\n        require(donations[msg.sender] > 0);\r\n        // The voter cannot double vote\r\n        require(thisRequest.voters[msg.sender] == false);\r\n        // Counting the vote \r\n        // We only count positive votes\r\n        thisRequest.voters[msg.sender] = true;\r\n        thisRequest.yesVotes++;\r\n        emit DonorVote(msg.sender);\r\n    }\r\n    \r\n    \r\n    function make_payment( uint index) public onlyAdmin {\r\n        // Directly reference the specfic spending request inside the request dynamic array\r\n        Request storage thisRequest = requests[index];\r\n        \r\n        // Check necessary Conditions \r\n        // Cannot allow double payment for the same request\r\n        require(thisRequest.completed == false);\r\n        // Number of voters that approved should be more thatn 50% voters\r\n        require(thisRequest.yesVotes > numberOfDonors /2);\r\n        \r\n        // Performing the transder operation\r\n        thisRequest.recipient.transfer(thisRequest.value);\r\n        thisRequest.completed = true;\r\n        emit PaymentMade( msg.sender, thisRequest.recipient, thisRequest.value );\r\n    }\r\n\r\n    function get_summary() public view returns ( \r\n    address _owner, \r\n    string memory _name,\r\n    string memory _description,\r\n    uint _minDonation,\r\n    uint _raisedDonation,\r\n    uint _goal,\r\n    uint _numberOfDonors,\r\n    uint _numRequests ){\r\n        _name = name;\r\n        _owner = owner;\r\n        _description = description;\r\n        _minDonation = minDonation;\r\n        _raisedDonation = raisedDonation;\r\n        _goal = goal;\r\n        _numberOfDonors = numberOfDonors;\r\n        _numRequests = numRequests;\r\n    }\r\n\r\n    // Need to offload the calling of each request to backend\r\n    // input: index. Range is from 0 to (numRequests - 1)\r\n    function get_request_details(uint index) public view returns (\r\n    string memory _requestDescription,\r\n    uint _value,\r\n    address _recipient,\r\n    bool _completed,\r\n    uint _yesVotes){\r\n        _requestDescription = requests[index].requestDescription;\r\n        _value = requests[index].value;\r\n        _recipient = requests[index].recipient;\r\n        _completed = requests[index].completed;\r\n        _yesVotes = requests[index].yesVotes;\r\n    }\r\n   \r\n}\r\n\r\n\r\ncontract ProjectHub {\r\n// Similar to a factory pattern\r\n    \r\n    // state variables\r\n    Project[] public projects;\r\n    \r\n    event ProjectCreated(address projectAddress, string name, string description, uint minDonation, uint goal);\r\n    \r\n    function create_project(string memory _name, string memory _description, uint _minDonation, uint _goal ) public payable {\r\n    // Create a new project, need to provide all the necessary attributes for that project\r\n        Project project = new Project(_name, _description, _minDonation, _goal, msg.sender);\r\n        projects.push(project);\r\n        emit ProjectCreated( address(project), _name, _description, _minDonation, _goal);\r\n    }\r\n    \r\n    function get_projects() public view returns (Project[] memory){\r\n        // Returns the list of all the projects addresses\r\n        return projects;\r\n    }\r\n    \r\n}",
  "sourcePath": "D:\\Onedrive\\SUTD\\Term 8\\Blockchain\\TraceDonate\\contracts\\traceDonate.sol",
  "compiler": {
    "name": "solc",
    "version": "0.5.16+commit.9c3226ce.Emscripten.clang"
  },
  "schemaVersion": "3.4.2",
  "updatedAt": "2021-08-13T03:43:28.191Z",
  "devdoc": {
    "methods": {}
  },
  "userdoc": {
    "methods": {}
  }
}