{
  "contractName": "Project",
  "abi": [
    {
      "inputs": [
        {
          "internalType": "string",
          "name": "_description",
          "type": "string"
        },
        {
          "internalType": "uint256",
          "name": "_minDonation",
          "type": "uint256"
        },
        {
          "internalType": "uint256",
          "name": "_goal",
          "type": "uint256"
        }
      ],
      "payable": false,
      "stateMutability": "nonpayable",
      "type": "constructor"
    },
    {
      "anonymous": false,
      "inputs": [
        {
          "indexed": false,
          "internalType": "address",
          "name": "donor",
          "type": "address"
        },
        {
          "indexed": false,
          "internalType": "uint256",
          "name": "amount",
          "type": "uint256"
        }
      ],
      "name": "Contribute",
      "type": "event"
    },
    {
      "anonymous": false,
      "inputs": [
        {
          "indexed": false,
          "internalType": "address",
          "name": "owner",
          "type": "address"
        },
        {
          "indexed": false,
          "internalType": "address",
          "name": "recipient",
          "type": "address"
        },
        {
          "indexed": false,
          "internalType": "string",
          "name": "requestDescription",
          "type": "string"
        },
        {
          "indexed": false,
          "internalType": "uint256",
          "name": "value",
          "type": "uint256"
        }
      ],
      "name": "CreateRequest",
      "type": "event"
    },
    {
      "anonymous": false,
      "inputs": [
        {
          "indexed": false,
          "internalType": "address",
          "name": "donor",
          "type": "address"
        }
      ],
      "name": "DonorVote",
      "type": "event"
    },
    {
      "anonymous": false,
      "inputs": [
        {
          "indexed": false,
          "internalType": "address",
          "name": "owner",
          "type": "address"
        },
        {
          "indexed": false,
          "internalType": "address",
          "name": "recipient",
          "type": "address"
        },
        {
          "indexed": false,
          "internalType": "uint256",
          "name": "value",
          "type": "uint256"
        }
      ],
      "name": "PaymentMade",
      "type": "event"
    },
    {
      "constant": true,
      "inputs": [],
      "name": "description",
      "outputs": [
        {
          "internalType": "string",
          "name": "",
          "type": "string"
        }
      ],
      "payable": false,
      "stateMutability": "view",
      "type": "function"
    },
    {
      "constant": true,
      "inputs": [
        {
          "internalType": "address",
          "name": "",
          "type": "address"
        }
      ],
      "name": "donations",
      "outputs": [
        {
          "internalType": "uint256",
          "name": "",
          "type": "uint256"
        }
      ],
      "payable": false,
      "stateMutability": "view",
      "type": "function"
    },
    {
      "constant": true,
      "inputs": [],
      "name": "goal",
      "outputs": [
        {
          "internalType": "uint256",
          "name": "",
          "type": "uint256"
        }
      ],
      "payable": false,
      "stateMutability": "view",
      "type": "function"
    },
    {
      "constant": true,
      "inputs": [],
      "name": "minDonation",
      "outputs": [
        {
          "internalType": "uint256",
          "name": "",
          "type": "uint256"
        }
      ],
      "payable": false,
      "stateMutability": "view",
      "type": "function"
    },
    {
      "constant": true,
      "inputs": [],
      "name": "numberOfDonors",
      "outputs": [
        {
          "internalType": "uint256",
          "name": "",
          "type": "uint256"
        }
      ],
      "payable": false,
      "stateMutability": "view",
      "type": "function"
    },
    {
      "constant": true,
      "inputs": [],
      "name": "owner",
      "outputs": [
        {
          "internalType": "address",
          "name": "",
          "type": "address"
        }
      ],
      "payable": false,
      "stateMutability": "view",
      "type": "function"
    },
    {
      "constant": true,
      "inputs": [],
      "name": "raisedDonation",
      "outputs": [
        {
          "internalType": "uint256",
          "name": "",
          "type": "uint256"
        }
      ],
      "payable": false,
      "stateMutability": "view",
      "type": "function"
    },
    {
      "constant": false,
      "inputs": [],
      "name": "contribute",
      "outputs": [],
      "payable": true,
      "stateMutability": "payable",
      "type": "function"
    },
    {
      "constant": false,
      "inputs": [
        {
          "internalType": "string",
          "name": "_requestDescription",
          "type": "string"
        },
        {
          "internalType": "address payable",
          "name": "_recipient",
          "type": "address"
        },
        {
          "internalType": "uint256",
          "name": "_value",
          "type": "uint256"
        }
      ],
      "name": "create_request",
      "outputs": [],
      "payable": false,
      "stateMutability": "nonpayable",
      "type": "function"
    },
    {
      "constant": false,
      "inputs": [
        {
          "internalType": "uint256",
          "name": "index",
          "type": "uint256"
        }
      ],
      "name": "vote_request",
      "outputs": [],
      "payable": false,
      "stateMutability": "nonpayable",
      "type": "function"
    },
    {
      "constant": false,
      "inputs": [
        {
          "internalType": "uint256",
          "name": "index",
          "type": "uint256"
        }
      ],
      "name": "make_payment",
      "outputs": [],
      "payable": false,
      "stateMutability": "nonpayable",
      "type": "function"
    }
  ],
  "bytecode": "0x608060405260006003553480156200001657600080fd5b5060405162000f4338038062000f43833981810160405260608110156200003c57600080fd5b81019080805160405193929190846401000000008211156200005d57600080fd5b838201915060208201858111156200007457600080fd5b82518660018202830111640100000000821117156200009257600080fd5b8083526020830192505050908051906020019080838360005b83811015620000c8578082015181840152602081019050620000ab565b50505050905090810190601f168015620000f65780820380516001836020036101000a031916815260200191505b50604052602001805190602001909291908051906020019092919050505082600190805190602001906200012c9291906200018c565b508160028190555080600481905550336000806101000a81548173ffffffffffffffffffffffffffffffffffffffff021916908373ffffffffffffffffffffffffffffffffffffffff16021790555060006007819055505050506200023b565b828054600181600116156101000203166002900490600052602060002090601f016020900481019282601f10620001cf57805160ff191683800117855562000200565b8280016001018555821562000200579182015b82811115620001ff578251825591602001919060010190620001e2565b5b5090506200020f919062000213565b5090565b6200023891905b80821115620002345760008160009055506001016200021a565b5090565b90565b610cf8806200024b6000396000f3fe60806040526004361061009c5760003560e01c806364b2e2d91161006457806364b2e2d91461024f5780637284e4161461027a5780638da5cb5b1461030a578063bdec123014610361578063cc6cb19a1461039c578063d7bb99ba146104015761009c565b806308fccafc146100a1578063110229c1146100dc5780631c0e0225146101075780634019388314610132578063410bbe801461015d575b600080fd5b3480156100ad57600080fd5b506100da600480360360208110156100c457600080fd5b810190808035906020019092919050505061040b565b005b3480156100e857600080fd5b506100f16105b3565b6040518082815260200191505060405180910390f35b34801561011357600080fd5b5061011c6105b9565b6040518082815260200191505060405180910390f35b34801561013e57600080fd5b506101476105bf565b6040518082815260200191505060405180910390f35b34801561016957600080fd5b5061024d6004803603606081101561018057600080fd5b810190808035906020019064010000000081111561019d57600080fd5b8201836020820111156101af57600080fd5b803590602001918460018302840111640100000000831117156101d157600080fd5b91908080601f016020809104026020016040519081016040528093929190818152602001838380828437600081840152601f19601f820116905080830192505050505050509192919290803573ffffffffffffffffffffffffffffffffffffffff169060200190929190803590602001909291905050506105c5565b005b34801561025b57600080fd5b506102646107f4565b6040518082815260200191505060405180910390f35b34801561028657600080fd5b5061028f6107fa565b6040518080602001828103825283818151815260200191508051906020019080838360005b838110156102cf5780820151818401526020810190506102b4565b50505050905090810190601f1680156102fc5780820380516001836020036101000a031916815260200191505b509250505060405180910390f35b34801561031657600080fd5b5061031f610898565b604051808273ffffffffffffffffffffffffffffffffffffffff1673ffffffffffffffffffffffffffffffffffffffff16815260200191505060405180910390f35b34801561036d57600080fd5b5061039a6004803603602081101561038457600080fd5b81019080803590602001909291905050506108bd565b005b3480156103a857600080fd5b506103eb600480360360208110156103bf57600080fd5b81019080803573ffffffffffffffffffffffffffffffffffffffff169060200190929190505050610ad3565b6040518082815260200191505060405180910390f35b610409610aeb565b005b600454600354101561041c57600080fd5b60006008600083815260200190815260200160002090506000600660003373ffffffffffffffffffffffffffffffffffffffff1673ffffffffffffffffffffffffffffffffffffffff168152602001908152602001600020541161047f57600080fd5b600015158160040160003373ffffffffffffffffffffffffffffffffffffffff1673ffffffffffffffffffffffffffffffffffffffff16815260200190815260200160002060009054906101000a900460ff161515146104de57600080fd5b60018160040160003373ffffffffffffffffffffffffffffffffffffffff1673ffffffffffffffffffffffffffffffffffffffff16815260200190815260200160002060006101000a81548160ff02191690831515021790555080600301600081548092919060010191905055507f137a99be36aa5d9c4a28207ff686d8d558234cb64a943ed60ad3a116c64fe82a33604051808273ffffffffffffffffffffffffffffffffffffffff1673ffffffffffffffffffffffffffffffffffffffff16815260200191505060405180910390a15050565b60035481565b60025481565b60045481565b6000809054906101000a900473ffffffffffffffffffffffffffffffffffffffff1673ffffffffffffffffffffffffffffffffffffffff163373ffffffffffffffffffffffffffffffffffffffff161461061e57600080fd5b600454600354101561062f57600080fd5b6000600860006007600081548092919060010191905055815260200190815260200160002090508381600001908051906020019061066e929190610c1e565b50818160010181905550828160020160006101000a81548173ffffffffffffffffffffffffffffffffffffffff021916908373ffffffffffffffffffffffffffffffffffffffff1602179055506000816003018190555060008160020160146101000a81548160ff0219169083151502179055507fbc4d0e3ffbf370d5f243517e2c6b11f82282a49687fc6c0bac2af61008b01f1d33848685604051808573ffffffffffffffffffffffffffffffffffffffff1673ffffffffffffffffffffffffffffffffffffffff1681526020018473ffffffffffffffffffffffffffffffffffffffff1673ffffffffffffffffffffffffffffffffffffffff16815260200180602001838152602001828103825284818151815260200191508051906020019080838360005b838110156107b1578082015181840152602081019050610796565b50505050905090810190601f1680156107de5780820380516001836020036101000a031916815260200191505b509550505050505060405180910390a150505050565b60055481565b60018054600181600116156101000203166002900480601f0160208091040260200160405190810160405280929190818152602001828054600181600116156101000203166002900480156108905780601f1061086557610100808354040283529160200191610890565b820191906000526020600020905b81548152906001019060200180831161087357829003601f168201915b505050505081565b6000809054906101000a900473ffffffffffffffffffffffffffffffffffffffff1681565b6000809054906101000a900473ffffffffffffffffffffffffffffffffffffffff1673ffffffffffffffffffffffffffffffffffffffff163373ffffffffffffffffffffffffffffffffffffffff161461091657600080fd5b600454600354101561092757600080fd5b6000600860008381526020019081526020016000209050600015158160020160149054906101000a900460ff1615151461096057600080fd5b60026005548161096c57fe5b0481600301541161097c57600080fd5b8060020160009054906101000a900473ffffffffffffffffffffffffffffffffffffffff1673ffffffffffffffffffffffffffffffffffffffff166108fc82600101549081150290604051600060405180830381858888f193505050501580156109ea573d6000803e3d6000fd5b5060018160020160146101000a81548160ff0219169083151502179055507f0a58819e8a8484b4b953261f35757d54a8bb44412938c22784e056a69ffa17c9338260020160009054906101000a900473ffffffffffffffffffffffffffffffffffffffff168360010154604051808473ffffffffffffffffffffffffffffffffffffffff1673ffffffffffffffffffffffffffffffffffffffff1681526020018373ffffffffffffffffffffffffffffffffffffffff1673ffffffffffffffffffffffffffffffffffffffff168152602001828152602001935050505060405180910390a15050565b60066020528060005260406000206000915090505481565b6002543411610af957600080fd5b6000600660003373ffffffffffffffffffffffffffffffffffffffff1673ffffffffffffffffffffffffffffffffffffffff168152602001908152602001600020541415610b54576005600081548092919060010191905055505b34600660003373ffffffffffffffffffffffffffffffffffffffff1673ffffffffffffffffffffffffffffffffffffffff16815260200190815260200160002060008282540192505081905550346003600082825401925050819055507f906faaf913a60f38b5e8f2d6f5b163239bac2d994fa1a5d21751a51587a940573334604051808373ffffffffffffffffffffffffffffffffffffffff1673ffffffffffffffffffffffffffffffffffffffff1681526020018281526020019250505060405180910390a1565b828054600181600116156101000203166002900490600052602060002090601f016020900481019282601f10610c5f57805160ff1916838001178555610c8d565b82800160010185558215610c8d579182015b82811115610c8c578251825591602001919060010190610c71565b5b509050610c9a9190610c9e565b5090565b610cc091905b80821115610cbc576000816000905550600101610ca4565b5090565b9056fea265627a7a7231582067b9779e56fd2f0c175451156e0b19e7fcd8b75a4cf797bba53564ccf450030364736f6c63430005100032",
  "source": "// SPDX-License-Identifier: GPL-3.0\n\npragma solidity >=0.4.22 <0.9.0;\n\ncontract Project{\n    // Storage state cariables\n    address public owner;\n    string public description;\n    uint public minDonation;\n    uint public raisedDonation = 0;\n    uint public goal;\n    uint public numberOfDonors;\n    mapping (address => uint) public donations; // stores the donation of each donor\n    uint numRequests;\n    mapping (uint => Request) requests;\n    \n    // For each spending request, need to create a new instance of request\n    struct Request {\n        string requestDescription;\n        uint value;\n        address payable recipient; // This is the address that the beneificiary want to send funds to.\n        bool completed;\n        uint numberOfVoters;\n        mapping (address=>bool) voters;\n    }\n    \n    // Events needed by the web app\n    event Contribute( address donor, uint amount);\n    event CreateRequest( address owner, address recipient, string requestDescription, uint value );\n    event PaymentMade( address owner, address recipient, uint value );\n    event DonorVote( address donor);\n    \n    // Modifiers to automatically check a condition, prior to executing a function\n    modifier onlyAdmin{\n        require(msg.sender == owner);\n        _; // This is just syntax, this tells the modifier to continue with the rest of the function after it calls its body\n    }\n    \n    modifier goalReached {\n        // Allow owner to create spending requrest only when the goal is reached\n        require(raisedDonation >= goal);\n        _;\n    }\n    \n    constructor( string memory _description, uint _minDonation, uint _goal) public {\n        description = _description;\n        minDonation = _minDonation;\n        goal = _goal;\n        owner = msg.sender; // The creator of the project is the owner of the project\n        numRequests = 0;\n    }\n    \n    function contribute() public payable{\n        // A payable function will store the value that is sent to that account\n        // and will be trapped there unless there is a withdraw function\n        // Conditions for executing the rest of the function\n        require( msg.value > minDonation);\n        // Checking whether this is the first time the person is contributing\n        if(donations[msg.sender] == 0){\n            // If its his first time, need to invrement the total number of contributors\n            numberOfDonors ++;\n        }\n        // Add the amount sent to his previous contributions\n        donations[msg.sender] += msg.value;\n        raisedDonation += msg.value;\n        emit Contribute( msg.sender, msg.value);\n    }\n    \n    // Project owner creates a request before he can spend his money\n    function create_request( string memory _requestDescription, address payable _recipient, uint _value) public onlyAdmin goalReached{\n        // instantiating a request struct in memory\n        // Store request struct variable from mapping in storage\n        Request storage newRequest = requests[numRequests++];\n        newRequest.requestDescription = _requestDescription;\n        newRequest.value = _value;\n        newRequest.recipient = _recipient;\n        newRequest.numberOfVoters = 0;\n        newRequest.completed = false;\n        emit CreateRequest( msg.sender, _recipient, _requestDescription, _value);\n    }\n    \n    function vote_request(uint index) public goalReached{\n        \n        // Direct Reference a specific spending request inside the requests dynamic array\n        // by calling storage here,, any changes that we make to thisRequest will\n        // also affect the request in tthe specific index in requests array\n        Request storage thisRequest =  requests[index];\n        // Checking for Conditions\n        // The voter also needs to be a donor\n        require(donations[msg.sender] > 0);\n        // The voter cannot double vote\n        require(thisRequest.voters[msg.sender] == false);\n        // Counting the vote \n        // We only count positive votes\n        thisRequest.voters[msg.sender] = true;\n        thisRequest.numberOfVoters++;\n        emit DonorVote(msg.sender);\n    }\n    \n    \n    function make_payment( uint index) public onlyAdmin goalReached{\n        // Directly reference the specfic spending request inside the request dynamic array\n        Request storage thisRequest = requests[index];\n        \n        // Check necessary Conditions \n        // Cannot allow double payment for the same request\n        require(thisRequest.completed == false);\n        // Number of voters that approved should be more thatn 50% voters\n        require(thisRequest.numberOfVoters > numberOfDonors /2);\n        \n        // Performing the transder operation\n        thisRequest.recipient.transfer(thisRequest.value);\n        thisRequest.completed = true;\n        emit PaymentMade( msg.sender, thisRequest.recipient, thisRequest.value );\n    }\n    \n}",
  "sourcePath": "/home/ryansacatani/Documents/SUTD/Term_8/50.037_BlockchainTechnology/TraceDonate/contracts/Project.sol",
  "compiler": {
    "name": "solc",
    "version": "0.5.16+commit.9c3226ce.Emscripten.clang"
  },
  "schemaVersion": "3.4.2",
  "updatedAt": "2021-07-27T09:47:11.031Z",
  "devdoc": {
    "methods": {}
  },
  "userdoc": {
    "methods": {}
  }
}