{
  "contractName": "Project",
  "abi": [
    {
      "inputs": [
        {
          "internalType": "string",
          "name": "_description",
          "type": "string"
        },
        {
          "internalType": "uint256",
          "name": "_minDonation",
          "type": "uint256"
        },
        {
          "internalType": "uint256",
          "name": "_goal",
          "type": "uint256"
        },
        {
          "internalType": "address",
          "name": "_owner",
          "type": "address"
        }
      ],
      "payable": false,
      "stateMutability": "nonpayable",
      "type": "constructor"
    },
    {
      "anonymous": false,
      "inputs": [
        {
          "indexed": false,
          "internalType": "address",
          "name": "donor",
          "type": "address"
        },
        {
          "indexed": false,
          "internalType": "uint256",
          "name": "amount",
          "type": "uint256"
        }
      ],
      "name": "Contribute",
      "type": "event"
    },
    {
      "anonymous": false,
      "inputs": [
        {
          "indexed": false,
          "internalType": "address",
          "name": "owner",
          "type": "address"
        },
        {
          "indexed": false,
          "internalType": "address",
          "name": "recipient",
          "type": "address"
        },
        {
          "indexed": false,
          "internalType": "string",
          "name": "requestDescription",
          "type": "string"
        },
        {
          "indexed": false,
          "internalType": "uint256",
          "name": "value",
          "type": "uint256"
        }
      ],
      "name": "CreateRequest",
      "type": "event"
    },
    {
      "anonymous": false,
      "inputs": [
        {
          "indexed": false,
          "internalType": "address",
          "name": "donor",
          "type": "address"
        }
      ],
      "name": "DonorVote",
      "type": "event"
    },
    {
      "anonymous": false,
      "inputs": [
        {
          "indexed": false,
          "internalType": "address",
          "name": "owner",
          "type": "address"
        },
        {
          "indexed": false,
          "internalType": "address",
          "name": "recipient",
          "type": "address"
        },
        {
          "indexed": false,
          "internalType": "uint256",
          "name": "value",
          "type": "uint256"
        }
      ],
      "name": "PaymentMade",
      "type": "event"
    },
    {
      "constant": true,
      "inputs": [],
      "name": "description",
      "outputs": [
        {
          "internalType": "string",
          "name": "",
          "type": "string"
        }
      ],
      "payable": false,
      "stateMutability": "view",
      "type": "function"
    },
    {
      "constant": true,
      "inputs": [
        {
          "internalType": "address",
          "name": "",
          "type": "address"
        }
      ],
      "name": "donations",
      "outputs": [
        {
          "internalType": "uint256",
          "name": "",
          "type": "uint256"
        }
      ],
      "payable": false,
      "stateMutability": "view",
      "type": "function"
    },
    {
      "constant": true,
      "inputs": [],
      "name": "goal",
      "outputs": [
        {
          "internalType": "uint256",
          "name": "",
          "type": "uint256"
        }
      ],
      "payable": false,
      "stateMutability": "view",
      "type": "function"
    },
    {
      "constant": true,
      "inputs": [],
      "name": "minDonation",
      "outputs": [
        {
          "internalType": "uint256",
          "name": "",
          "type": "uint256"
        }
      ],
      "payable": false,
      "stateMutability": "view",
      "type": "function"
    },
    {
      "constant": true,
      "inputs": [],
      "name": "numberOfDonors",
      "outputs": [
        {
          "internalType": "uint256",
          "name": "",
          "type": "uint256"
        }
      ],
      "payable": false,
      "stateMutability": "view",
      "type": "function"
    },
    {
      "constant": true,
      "inputs": [],
      "name": "owner",
      "outputs": [
        {
          "internalType": "address",
          "name": "",
          "type": "address"
        }
      ],
      "payable": false,
      "stateMutability": "view",
      "type": "function"
    },
    {
      "constant": true,
      "inputs": [],
      "name": "raisedDonation",
      "outputs": [
        {
          "internalType": "uint256",
          "name": "",
          "type": "uint256"
        }
      ],
      "payable": false,
      "stateMutability": "view",
      "type": "function"
    },
    {
      "constant": true,
      "inputs": [
        {
          "internalType": "uint256",
          "name": "",
          "type": "uint256"
        }
      ],
      "name": "requests",
      "outputs": [
        {
          "internalType": "string",
          "name": "requestDescription",
          "type": "string"
        },
        {
          "internalType": "uint256",
          "name": "value",
          "type": "uint256"
        },
        {
          "internalType": "address payable",
          "name": "recipient",
          "type": "address"
        },
        {
          "internalType": "bool",
          "name": "completed",
          "type": "bool"
        },
        {
          "internalType": "uint256",
          "name": "yesVotes",
          "type": "uint256"
        }
      ],
      "payable": false,
      "stateMutability": "view",
      "type": "function"
    },
    {
      "constant": false,
      "inputs": [],
      "name": "contribute",
      "outputs": [],
      "payable": true,
      "stateMutability": "payable",
      "type": "function"
    },
    {
      "constant": false,
      "inputs": [
        {
          "internalType": "string",
          "name": "_requestDescription",
          "type": "string"
        },
        {
          "internalType": "address payable",
          "name": "_recipient",
          "type": "address"
        },
        {
          "internalType": "uint256",
          "name": "_value",
          "type": "uint256"
        }
      ],
      "name": "create_request",
      "outputs": [],
      "payable": false,
      "stateMutability": "nonpayable",
      "type": "function"
    },
    {
      "constant": false,
      "inputs": [
        {
          "internalType": "uint256",
          "name": "index",
          "type": "uint256"
        }
      ],
      "name": "vote_request",
      "outputs": [],
      "payable": false,
      "stateMutability": "nonpayable",
      "type": "function"
    },
    {
      "constant": false,
      "inputs": [
        {
          "internalType": "uint256",
          "name": "index",
          "type": "uint256"
        }
      ],
      "name": "make_payment",
      "outputs": [],
      "payable": false,
      "stateMutability": "nonpayable",
      "type": "function"
    },
    {
      "constant": true,
      "inputs": [],
      "name": "get_summary",
      "outputs": [
        {
          "internalType": "address",
          "name": "_owner",
          "type": "address"
        },
        {
          "internalType": "string",
          "name": "_description",
          "type": "string"
        },
        {
          "internalType": "uint256",
          "name": "_minDonation",
          "type": "uint256"
        },
        {
          "internalType": "uint256",
          "name": "_raisedDonation",
          "type": "uint256"
        },
        {
          "internalType": "uint256",
          "name": "_goal",
          "type": "uint256"
        },
        {
          "internalType": "uint256",
          "name": "_numberOfDonors",
          "type": "uint256"
        },
        {
          "internalType": "uint256",
          "name": "_numRequests",
          "type": "uint256"
        }
      ],
      "payable": false,
      "stateMutability": "view",
      "type": "function"
    },
    {
      "constant": true,
      "inputs": [
        {
          "internalType": "uint256",
          "name": "index",
          "type": "uint256"
        }
      ],
      "name": "get_request_details",
      "outputs": [
        {
          "internalType": "string",
          "name": "_requestDescription",
          "type": "string"
        },
        {
          "internalType": "uint256",
          "name": "_value",
          "type": "uint256"
        },
        {
          "internalType": "address",
          "name": "_recipient",
          "type": "address"
        },
        {
          "internalType": "bool",
          "name": "_completed",
          "type": "bool"
        },
        {
          "internalType": "uint256",
          "name": "_yesVotes",
          "type": "uint256"
        }
      ],
      "payable": false,
      "stateMutability": "view",
      "type": "function"
    }
  ],
  "bytecode": "0x608060405260006003553480156200001657600080fd5b50604051620015ff380380620015ff833981810160405260808110156200003c57600080fd5b81019080805160405193929190846401000000008211156200005d57600080fd5b838201915060208201858111156200007457600080fd5b82518660018202830111640100000000821117156200009257600080fd5b8083526020830192505050908051906020019080838360005b83811015620000c8578082015181840152602081019050620000ab565b50505050905090810190601f168015620000f65780820380516001836020036101000a031916815260200191505b5060405260200180519060200190929190805190602001909291908051906020019092919050505083600190805190602001906200013692919062000197565b508260028190555081600481905550806000806101000a81548173ffffffffffffffffffffffffffffffffffffffff021916908373ffffffffffffffffffffffffffffffffffffffff16021790555060006007819055505050505062000246565b828054600181600116156101000203166002900490600052602060002090601f016020900481019282601f10620001da57805160ff19168380011785556200020b565b828001600101855582156200020b579182015b828111156200020a578251825591602001919060010190620001ed565b5b5090506200021a91906200021e565b5090565b6200024391905b808211156200023f57600081600090555060010162000225565b5090565b90565b6113a980620002566000396000f3fe6080604052600436106100dd5760003560e01c806381d12c581161007f578063bdec123011610059578063bdec123014610588578063c98de5be146105c3578063cc6cb19a146106c3578063d7bb99ba14610728576100dd565b806381d12c581461034b5780638da5cb5b1461044b578063a222e665146104a2576100dd565b806340193883116100bb5780634019388314610173578063410bbe801461019e57806364b2e2d9146102905780637284e416146102bb576100dd565b806308fccafc146100e2578063110229c11461011d5780631c0e022514610148575b600080fd5b3480156100ee57600080fd5b5061011b6004803603602081101561010557600080fd5b8101908080359060200190929190505050610732565b005b34801561012957600080fd5b506101326108e2565b6040518082815260200191505060405180910390f35b34801561015457600080fd5b5061015d6108e8565b6040518082815260200191505060405180910390f35b34801561017f57600080fd5b506101886108ee565b6040518082815260200191505060405180910390f35b3480156101aa57600080fd5b5061028e600480360360608110156101c157600080fd5b81019080803590602001906401000000008111156101de57600080fd5b8201836020820111156101f057600080fd5b8035906020019184600183028401116401000000008311171561021257600080fd5b91908080601f016020809104026020016040519081016040528093929190818152602001838380828437600081840152601f19601f820116905080830192505050505050509192919290803573ffffffffffffffffffffffffffffffffffffffff169060200190929190803590602001909291905050506108f4565b005b34801561029c57600080fd5b506102a5610b2b565b6040518082815260200191505060405180910390f35b3480156102c757600080fd5b506102d0610b31565b6040518080602001828103825283818151815260200191508051906020019080838360005b838110156103105780820151818401526020810190506102f5565b50505050905090810190601f16801561033d5780820380516001836020036101000a031916815260200191505b509250505060405180910390f35b34801561035757600080fd5b506103846004803603602081101561036e57600080fd5b8101908080359060200190929190505050610bcf565b60405180806020018681526020018573ffffffffffffffffffffffffffffffffffffffff1673ffffffffffffffffffffffffffffffffffffffff16815260200184151515158152602001838152602001828103825287818151815260200191508051906020019080838360005b8381101561040c5780820151818401526020810190506103f1565b50505050905090810190601f1680156104395780820380516001836020036101000a031916815260200191505b50965050505050505060405180910390f35b34801561045757600080fd5b50610460610cd7565b604051808273ffffffffffffffffffffffffffffffffffffffff1673ffffffffffffffffffffffffffffffffffffffff16815260200191505060405180910390f35b3480156104ae57600080fd5b506104b7610cfc565b604051808873ffffffffffffffffffffffffffffffffffffffff1673ffffffffffffffffffffffffffffffffffffffff16815260200180602001878152602001868152602001858152602001848152602001838152602001828103825288818151815260200191508051906020019080838360005b8381101561054757808201518184015260208101905061052c565b50505050905090810190601f1680156105745780820380516001836020036101000a031916815260200191505b509850505050505050505060405180910390f35b34801561059457600080fd5b506105c1600480360360208110156105ab57600080fd5b8101908080359060200190929190505050610deb565b005b3480156105cf57600080fd5b506105fc600480360360208110156105e657600080fd5b8101908080359060200190929190505050611009565b60405180806020018681526020018573ffffffffffffffffffffffffffffffffffffffff1673ffffffffffffffffffffffffffffffffffffffff16815260200184151515158152602001838152602001828103825287818151815260200191508051906020019080838360005b83811015610684578082015181840152602081019050610669565b50505050905090810190601f1680156106b15780820380516001836020036101000a031916815260200191505b50965050505050505060405180910390f35b3480156106cf57600080fd5b50610712600480360360208110156106e657600080fd5b81019080803573ffffffffffffffffffffffffffffffffffffffff169060200190929190505050611184565b6040518082815260200191505060405180910390f35b61073061119c565b005b600454600354101561074357600080fd5b60006008828154811061075257fe5b906000526020600020906005020190506000600660003373ffffffffffffffffffffffffffffffffffffffff1673ffffffffffffffffffffffffffffffffffffffff16815260200190815260200160002054116107ae57600080fd5b600015158160040160003373ffffffffffffffffffffffffffffffffffffffff1673ffffffffffffffffffffffffffffffffffffffff16815260200190815260200160002060009054906101000a900460ff1615151461080d57600080fd5b60018160040160003373ffffffffffffffffffffffffffffffffffffffff1673ffffffffffffffffffffffffffffffffffffffff16815260200190815260200160002060006101000a81548160ff02191690831515021790555080600301600081548092919060010191905055507f137a99be36aa5d9c4a28207ff686d8d558234cb64a943ed60ad3a116c64fe82a33604051808273ffffffffffffffffffffffffffffffffffffffff1673ffffffffffffffffffffffffffffffffffffffff16815260200191505060405180910390a15050565b60035481565b60025481565b60045481565b6000809054906101000a900473ffffffffffffffffffffffffffffffffffffffff1673ffffffffffffffffffffffffffffffffffffffff163373ffffffffffffffffffffffffffffffffffffffff161461094d57600080fd5b600454600354101561095e57600080fd5b6000600860076000815480929190600101919050558154811061097d57fe5b90600052602060002090600502019050838160000190805190602001906109a59291906112cf565b50818160010181905550828160020160006101000a81548173ffffffffffffffffffffffffffffffffffffffff021916908373ffffffffffffffffffffffffffffffffffffffff1602179055506000816003018190555060008160020160146101000a81548160ff0219169083151502179055507fbc4d0e3ffbf370d5f243517e2c6b11f82282a49687fc6c0bac2af61008b01f1d33848685604051808573ffffffffffffffffffffffffffffffffffffffff1673ffffffffffffffffffffffffffffffffffffffff1681526020018473ffffffffffffffffffffffffffffffffffffffff1673ffffffffffffffffffffffffffffffffffffffff16815260200180602001838152602001828103825284818151815260200191508051906020019080838360005b83811015610ae8578082015181840152602081019050610acd565b50505050905090810190601f168015610b155780820380516001836020036101000a031916815260200191505b509550505050505060405180910390a150505050565b60055481565b60018054600181600116156101000203166002900480601f016020809104026020016040519081016040528092919081815260200182805460018160011615610100020316600290048015610bc75780601f10610b9c57610100808354040283529160200191610bc7565b820191906000526020600020905b815481529060010190602001808311610baa57829003601f168201915b505050505081565b60088181548110610bdc57fe5b9060005260206000209060050201600091509050806000018054600181600116156101000203166002900480601f016020809104026020016040519081016040528092919081815260200182805460018160011615610100020316600290048015610c885780601f10610c5d57610100808354040283529160200191610c88565b820191906000526020600020905b815481529060010190602001808311610c6b57829003601f168201915b5050505050908060010154908060020160009054906101000a900473ffffffffffffffffffffffffffffffffffffffff16908060020160149054906101000a900460ff16908060030154905085565b6000809054906101000a900473ffffffffffffffffffffffffffffffffffffffff1681565b6000606060008060008060008060009054906101000a900473ffffffffffffffffffffffffffffffffffffffff16965060018054600181600116156101000203166002900480601f016020809104026020016040519081016040528092919081815260200182805460018160011615610100020316600290048015610dc25780601f10610d9757610100808354040283529160200191610dc2565b820191906000526020600020905b815481529060010190602001808311610da557829003601f168201915b505050505095506002549450600354935060045492506005549150600754905090919293949596565b6000809054906101000a900473ffffffffffffffffffffffffffffffffffffffff1673ffffffffffffffffffffffffffffffffffffffff163373ffffffffffffffffffffffffffffffffffffffff1614610e4457600080fd5b6004546003541015610e5557600080fd5b600060088281548110610e6457fe5b90600052602060002090600502019050600015158160020160149054906101000a900460ff16151514610e9657600080fd5b600260055481610ea257fe5b04816003015411610eb257600080fd5b8060020160009054906101000a900473ffffffffffffffffffffffffffffffffffffffff1673ffffffffffffffffffffffffffffffffffffffff166108fc82600101549081150290604051600060405180830381858888f19350505050158015610f20573d6000803e3d6000fd5b5060018160020160146101000a81548160ff0219169083151502179055507f0a58819e8a8484b4b953261f35757d54a8bb44412938c22784e056a69ffa17c9338260020160009054906101000a900473ffffffffffffffffffffffffffffffffffffffff168360010154604051808473ffffffffffffffffffffffffffffffffffffffff1673ffffffffffffffffffffffffffffffffffffffff1681526020018373ffffffffffffffffffffffffffffffffffffffff1673ffffffffffffffffffffffffffffffffffffffff168152602001828152602001935050505060405180910390a15050565b60606000806000806008868154811061101e57fe5b90600052602060002090600502016000018054600181600116156101000203166002900480601f0160208091040260200160405190810160405280929190818152602001828054600181600116156101000203166002900480156110c35780601f10611098576101008083540402835291602001916110c3565b820191906000526020600020905b8154815290600101906020018083116110a657829003601f168201915b50505050509450600886815481106110d757fe5b9060005260206000209060050201600101549350600886815481106110f857fe5b906000526020600020906005020160020160009054906101000a900473ffffffffffffffffffffffffffffffffffffffff1692506008868154811061113957fe5b906000526020600020906005020160020160149054906101000a900460ff1691506008868154811061116757fe5b906000526020600020906005020160030154905091939590929450565b60066020528060005260406000206000915090505481565b60025434116111aa57600080fd5b6000600660003373ffffffffffffffffffffffffffffffffffffffff1673ffffffffffffffffffffffffffffffffffffffff168152602001908152602001600020541415611205576005600081548092919060010191905055505b34600660003373ffffffffffffffffffffffffffffffffffffffff1673ffffffffffffffffffffffffffffffffffffffff16815260200190815260200160002060008282540192505081905550346003600082825401925050819055507f906faaf913a60f38b5e8f2d6f5b163239bac2d994fa1a5d21751a51587a940573334604051808373ffffffffffffffffffffffffffffffffffffffff1673ffffffffffffffffffffffffffffffffffffffff1681526020018281526020019250505060405180910390a1565b828054600181600116156101000203166002900490600052602060002090601f016020900481019282601f1061131057805160ff191683800117855561133e565b8280016001018555821561133e579182015b8281111561133d578251825591602001919060010190611322565b5b50905061134b919061134f565b5090565b61137191905b8082111561136d576000816000905550600101611355565b5090565b9056fea265627a7a7231582000584286f62c6109b8bba1bbd9a0716fcfc80724baee79f539e861d6a6fd5ed764736f6c63430005100032",
  "source": "// SPDX-License-Identifier: GPL-3.0\r\npragma solidity >=0.4.22 <0.9.0;\r\n\r\ncontract Project{\r\n    // Storage state cariables\r\n    address public owner;\r\n    string public description;\r\n    uint public minDonation;\r\n    uint public raisedDonation = 0;\r\n    uint public goal;\r\n    uint public numberOfDonors;\r\n    mapping (address => uint) public donations; // stores the donation of each donor\r\n    uint numRequests;\r\n    Request[] public requests;\r\n    \r\n    // For each spending request, need to create a new instance of request\r\n    struct Request {\r\n        string requestDescription;\r\n        uint value;\r\n        address payable recipient; // This is the address that the beneificiary want to send funds to.\r\n        bool completed;\r\n        uint yesVotes;\r\n        mapping (address=>bool) voters;\r\n    }\r\n    \r\n    // Events needed by the web app\r\n    event Contribute( address donor, uint amount);\r\n    event CreateRequest( address owner, address recipient, string requestDescription, uint value );\r\n    event PaymentMade( address owner, address recipient, uint value );\r\n    event DonorVote( address donor);\r\n    \r\n    // Modifiers to automatically check a condition, prior to executing a function\r\n    modifier onlyAdmin{\r\n        require(msg.sender == owner);\r\n        _; // This is just syntax, this tells the modifier to continue with the rest of the function after it calls its body\r\n    }\r\n    \r\n    modifier goalReached {\r\n        // Allow owner to create spending requrest only when the goal is reached\r\n        require(raisedDonation >= goal);\r\n        _;\r\n    }\r\n    \r\n    constructor( string memory _description, uint _minDonation, uint _goal, address _owner) public {\r\n        description = _description;\r\n        minDonation = _minDonation;\r\n        goal = _goal;\r\n        owner = _owner; // The creator of the project is the owner of the project\r\n        numRequests = 0;\r\n    }\r\n    \r\n    function contribute() public payable{\r\n        // A payable function will store the value that is sent to that account\r\n        // and will be trapped there unless there is a withdraw function\r\n        // Conditions for executing the rest of the function\r\n        require( msg.value > minDonation);\r\n        // Checking whether this is the first time the person is contributing\r\n        if(donations[msg.sender] == 0){\r\n            // If its his first time, need to invrement the total number of contributors\r\n            numberOfDonors ++;\r\n        }\r\n        // Add the amount sent to his previous contributions\r\n        donations[msg.sender] += msg.value;\r\n        raisedDonation += msg.value;\r\n        emit Contribute( msg.sender, msg.value);\r\n    }\r\n    \r\n    // Project owner creates a request before he can spend his money\r\n    function create_request( string memory _requestDescription, address payable _recipient, uint _value) public onlyAdmin goalReached{\r\n        // instantiating a request struct in memory\r\n        // Store request struct variable from mapping in storage\r\n        Request storage newRequest = requests[numRequests++];\r\n        newRequest.requestDescription = _requestDescription;\r\n        newRequest.value = _value;\r\n        newRequest.recipient = _recipient;\r\n        newRequest.yesVotes = 0;\r\n        newRequest.completed = false;\r\n        emit CreateRequest( msg.sender, _recipient, _requestDescription, _value);\r\n    }\r\n    \r\n    function vote_request(uint index) public goalReached{\r\n        \r\n        // Direct Reference a specific spending request inside the requests dynamic array\r\n        // by calling storage here,, any changes that we make to thisRequest will\r\n        // also affect the request in tthe specific index in requests array\r\n        Request storage thisRequest =  requests[index];\r\n        // Checking for Conditions\r\n        // The voter also needs to be a donor\r\n        require(donations[msg.sender] > 0);\r\n        // The voter cannot double vote\r\n        require(thisRequest.voters[msg.sender] == false);\r\n        // Counting the vote \r\n        // We only count positive votes\r\n        thisRequest.voters[msg.sender] = true;\r\n        thisRequest.yesVotes++;\r\n        emit DonorVote(msg.sender);\r\n    }\r\n    \r\n    \r\n    function make_payment( uint index) public onlyAdmin goalReached{\r\n        // Directly reference the specfic spending request inside the request dynamic array\r\n        Request storage thisRequest = requests[index];\r\n        \r\n        // Check necessary Conditions \r\n        // Cannot allow double payment for the same request\r\n        require(thisRequest.completed == false);\r\n        // Number of voters that approved should be more thatn 50% voters\r\n        require(thisRequest.yesVotes > numberOfDonors /2);\r\n        \r\n        // Performing the transder operation\r\n        thisRequest.recipient.transfer(thisRequest.value);\r\n        thisRequest.completed = true;\r\n        emit PaymentMade( msg.sender, thisRequest.recipient, thisRequest.value );\r\n    }\r\n\r\n    function get_summary() public view returns ( \r\n    address _owner, \r\n    string memory _description,\r\n    uint _minDonation,\r\n    uint _raisedDonation,\r\n    uint _goal,\r\n    uint _numberOfDonors,\r\n    uint _numRequests ){\r\n        _owner = owner;\r\n        _description = description;\r\n        _minDonation = minDonation;\r\n        _raisedDonation = raisedDonation;\r\n        _goal = goal;\r\n        _numberOfDonors = numberOfDonors;\r\n        _numRequests = numRequests;\r\n    }\r\n\r\n    // Need to offload the calling of each request to backend\r\n    // input: index. Range is from 0 to (numRequests - 1)\r\n    function get_request_details(uint index) public view returns (\r\n    string memory _requestDescription,\r\n    uint _value,\r\n    address _recipient,\r\n    bool _completed,\r\n    uint _yesVotes){\r\n        _requestDescription = requests[index].requestDescription;\r\n        _value = requests[index].value;\r\n        _recipient = requests[index].recipient;\r\n        _completed = requests[index].completed;\r\n        _yesVotes = requests[index].yesVotes;\r\n    }\r\n   \r\n}\r\n\r\n\r\ncontract ProjectHub {\r\n// Similar to a factory pattern\r\n    \r\n    // state variables\r\n    Project[] public projects;\r\n    \r\n    event ProjectCreated(address projectAddress, string description, uint minDonation, uint goal);\r\n    \r\n    function create_project(string memory _description, uint _minDonation, uint _goal ) public payable {\r\n    // Create a new project, need to provide all the necessary attributes for that project\r\n        Project project = new Project(_description, _minDonation, _goal, msg.sender);\r\n        projects.push(project);\r\n        emit ProjectCreated( address(project), _description, _minDonation, _goal);\r\n    }\r\n    \r\n    function get_projects() public view returns (Project[] memory){\r\n        // Returns the list of all the projects addresses\r\n        return projects;\r\n    }\r\n    \r\n}",
  "sourcePath": "D:\\Onedrive\\SUTD\\Term 8\\Blockchain\\TraceDonate\\contracts\\traceDonate.sol",
  "compiler": {
    "name": "solc",
    "version": "0.5.16+commit.9c3226ce.Emscripten.clang"
  },
  "schemaVersion": "3.4.2",
  "updatedAt": "2021-08-09T17:40:49.573Z",
  "devdoc": {
    "methods": {}
  },
  "userdoc": {
    "methods": {}
  }
}